{
  "_format": "hh-sol-artifact-1",
  "contractName": "LiquidityIncentives",
  "sourceName": "contracts/defi/LiquidityIncentives.sol",
  "abi": [
    {
      "inputs": [
        {
          "internalType": "address",
          "name": "_rewardToken",
          "type": "address"
        },
        {
          "internalType": "uint256",
          "name": "_rewardPerSecond",
          "type": "uint256"
        },
        {
          "internalType": "uint256",
          "name": "_startTime",
          "type": "uint256"
        },
        {
          "internalType": "uint256",
          "name": "_duration",
          "type": "uint256"
        },
        {
          "internalType": "address",
          "name": "_governance",
          "type": "address"
        }
      ],
      "stateMutability": "nonpayable",
      "type": "constructor"
    },
    {
      "inputs": [],
      "name": "AccessControlBadConfirmation",
      "type": "error"
    },
    {
      "inputs": [
        {
          "internalType": "address",
          "name": "account",
          "type": "address"
        },
        {
          "internalType": "bytes32",
          "name": "neededRole",
          "type": "bytes32"
        }
      ],
      "name": "AccessControlUnauthorizedAccount",
      "type": "error"
    },
    {
      "inputs": [],
      "name": "ReentrancyGuardReentrantCall",
      "type": "error"
    },
    {
      "inputs": [
        {
          "internalType": "address",
          "name": "token",
          "type": "address"
        }
      ],
      "name": "SafeERC20FailedOperation",
      "type": "error"
    },
    {
      "anonymous": false,
      "inputs": [
        {
          "indexed": true,
          "internalType": "address",
          "name": "user",
          "type": "address"
        },
        {
          "indexed": true,
          "internalType": "uint256",
          "name": "pid",
          "type": "uint256"
        },
        {
          "indexed": false,
          "internalType": "uint256",
          "name": "amount",
          "type": "uint256"
        }
      ],
      "name": "Deposit",
      "type": "event"
    },
    {
      "anonymous": false,
      "inputs": [
        {
          "indexed": true,
          "internalType": "address",
          "name": "user",
          "type": "address"
        },
        {
          "indexed": true,
          "internalType": "uint256",
          "name": "pid",
          "type": "uint256"
        },
        {
          "indexed": false,
          "internalType": "uint256",
          "name": "amount",
          "type": "uint256"
        }
      ],
      "name": "EmergencyWithdraw",
      "type": "event"
    },
    {
      "anonymous": false,
      "inputs": [
        {
          "indexed": true,
          "internalType": "uint256",
          "name": "pid",
          "type": "uint256"
        },
        {
          "indexed": true,
          "internalType": "address",
          "name": "lpToken",
          "type": "address"
        },
        {
          "indexed": false,
          "internalType": "uint256",
          "name": "allocPoint",
          "type": "uint256"
        },
        {
          "indexed": false,
          "internalType": "string",
          "name": "name",
          "type": "string"
        }
      ],
      "name": "PoolAdded",
      "type": "event"
    },
    {
      "anonymous": false,
      "inputs": [
        {
          "indexed": true,
          "internalType": "uint256",
          "name": "pid",
          "type": "uint256"
        },
        {
          "indexed": false,
          "internalType": "uint256",
          "name": "allocPoint",
          "type": "uint256"
        },
        {
          "indexed": false,
          "internalType": "bool",
          "name": "active",
          "type": "bool"
        }
      ],
      "name": "PoolUpdated",
      "type": "event"
    },
    {
      "anonymous": false,
      "inputs": [
        {
          "indexed": false,
          "internalType": "uint256",
          "name": "newRate",
          "type": "uint256"
        },
        {
          "indexed": false,
          "internalType": "uint256",
          "name": "endTime",
          "type": "uint256"
        }
      ],
      "name": "RewardRateUpdated",
      "type": "event"
    },
    {
      "anonymous": false,
      "inputs": [
        {
          "indexed": true,
          "internalType": "address",
          "name": "user",
          "type": "address"
        },
        {
          "indexed": true,
          "internalType": "uint256",
          "name": "pid",
          "type": "uint256"
        },
        {
          "indexed": false,
          "internalType": "uint256",
          "name": "amount",
          "type": "uint256"
        }
      ],
      "name": "RewardsClaimed",
      "type": "event"
    },
    {
      "anonymous": false,
      "inputs": [
        {
          "indexed": true,
          "internalType": "bytes32",
          "name": "role",
          "type": "bytes32"
        },
        {
          "indexed": true,
          "internalType": "bytes32",
          "name": "previousAdminRole",
          "type": "bytes32"
        },
        {
          "indexed": true,
          "internalType": "bytes32",
          "name": "newAdminRole",
          "type": "bytes32"
        }
      ],
      "name": "RoleAdminChanged",
      "type": "event"
    },
    {
      "anonymous": false,
      "inputs": [
        {
          "indexed": true,
          "internalType": "bytes32",
          "name": "role",
          "type": "bytes32"
        },
        {
          "indexed": true,
          "internalType": "address",
          "name": "account",
          "type": "address"
        },
        {
          "indexed": true,
          "internalType": "address",
          "name": "sender",
          "type": "address"
        }
      ],
      "name": "RoleGranted",
      "type": "event"
    },
    {
      "anonymous": false,
      "inputs": [
        {
          "indexed": true,
          "internalType": "bytes32",
          "name": "role",
          "type": "bytes32"
        },
        {
          "indexed": true,
          "internalType": "address",
          "name": "account",
          "type": "address"
        },
        {
          "indexed": true,
          "internalType": "address",
          "name": "sender",
          "type": "address"
        }
      ],
      "name": "RoleRevoked",
      "type": "event"
    },
    {
      "anonymous": false,
      "inputs": [
        {
          "indexed": true,
          "internalType": "address",
          "name": "user",
          "type": "address"
        },
        {
          "indexed": true,
          "internalType": "uint256",
          "name": "pid",
          "type": "uint256"
        },
        {
          "indexed": false,
          "internalType": "uint256",
          "name": "amount",
          "type": "uint256"
        }
      ],
      "name": "Withdraw",
      "type": "event"
    },
    {
      "inputs": [],
      "name": "DEFAULT_ADMIN_ROLE",
      "outputs": [
        {
          "internalType": "bytes32",
          "name": "",
          "type": "bytes32"
        }
      ],
      "stateMutability": "view",
      "type": "function"
    },
    {
      "inputs": [],
      "name": "INCENTIVE_MANAGER_ROLE",
      "outputs": [
        {
          "internalType": "bytes32",
          "name": "",
          "type": "bytes32"
        }
      ],
      "stateMutability": "view",
      "type": "function"
    },
    {
      "inputs": [
        {
          "internalType": "address",
          "name": "_lpToken",
          "type": "address"
        },
        {
          "internalType": "uint256",
          "name": "_allocPoint",
          "type": "uint256"
        },
        {
          "internalType": "string",
          "name": "_name",
          "type": "string"
        }
      ],
      "name": "addPool",
      "outputs": [],
      "stateMutability": "nonpayable",
      "type": "function"
    },
    {
      "inputs": [],
      "name": "claimAllRewards",
      "outputs": [],
      "stateMutability": "nonpayable",
      "type": "function"
    },
    {
      "inputs": [
        {
          "internalType": "uint256",
          "name": "_pid",
          "type": "uint256"
        }
      ],
      "name": "claimRewards",
      "outputs": [],
      "stateMutability": "nonpayable",
      "type": "function"
    },
    {
      "inputs": [
        {
          "internalType": "uint256",
          "name": "_pid",
          "type": "uint256"
        },
        {
          "internalType": "uint256",
          "name": "_amount",
          "type": "uint256"
        }
      ],
      "name": "deposit",
      "outputs": [],
      "stateMutability": "nonpayable",
      "type": "function"
    },
    {
      "inputs": [
        {
          "internalType": "uint256",
          "name": "_pid",
          "type": "uint256"
        }
      ],
      "name": "emergencyWithdraw",
      "outputs": [],
      "stateMutability": "nonpayable",
      "type": "function"
    },
    {
      "inputs": [],
      "name": "endTime",
      "outputs": [
        {
          "internalType": "uint256",
          "name": "",
          "type": "uint256"
        }
      ],
      "stateMutability": "view",
      "type": "function"
    },
    {
      "inputs": [
        {
          "internalType": "uint256",
          "name": "_amount",
          "type": "uint256"
        }
      ],
      "name": "fundRewards",
      "outputs": [],
      "stateMutability": "nonpayable",
      "type": "function"
    },
    {
      "inputs": [
        {
          "internalType": "uint256",
          "name": "_pid",
          "type": "uint256"
        }
      ],
      "name": "getPoolInfo",
      "outputs": [
        {
          "internalType": "address",
          "name": "lpToken",
          "type": "address"
        },
        {
          "internalType": "uint256",
          "name": "allocPoint",
          "type": "uint256"
        },
        {
          "internalType": "uint256",
          "name": "totalDeposited",
          "type": "uint256"
        },
        {
          "internalType": "string",
          "name": "name",
          "type": "string"
        },
        {
          "internalType": "bool",
          "name": "active",
          "type": "bool"
        }
      ],
      "stateMutability": "view",
      "type": "function"
    },
    {
      "inputs": [
        {
          "internalType": "bytes32",
          "name": "role",
          "type": "bytes32"
        }
      ],
      "name": "getRoleAdmin",
      "outputs": [
        {
          "internalType": "bytes32",
          "name": "",
          "type": "bytes32"
        }
      ],
      "stateMutability": "view",
      "type": "function"
    },
    {
      "inputs": [],
      "name": "getStats",
      "outputs": [
        {
          "internalType": "uint256",
          "name": "_totalPools",
          "type": "uint256"
        },
        {
          "internalType": "uint256",
          "name": "_totalAllocPoint",
          "type": "uint256"
        },
        {
          "internalType": "uint256",
          "name": "_rewardPerSecond",
          "type": "uint256"
        },
        {
          "internalType": "uint256",
          "name": "_startTime",
          "type": "uint256"
        },
        {
          "internalType": "uint256",
          "name": "_endTime",
          "type": "uint256"
        },
        {
          "internalType": "uint256",
          "name": "_totalRewardsDistributed",
          "type": "uint256"
        }
      ],
      "stateMutability": "view",
      "type": "function"
    },
    {
      "inputs": [
        {
          "internalType": "uint256",
          "name": "_pid",
          "type": "uint256"
        },
        {
          "internalType": "address",
          "name": "_user",
          "type": "address"
        }
      ],
      "name": "getUserInfo",
      "outputs": [
        {
          "internalType": "uint256",
          "name": "amount",
          "type": "uint256"
        },
        {
          "internalType": "uint256",
          "name": "pending",
          "type": "uint256"
        }
      ],
      "stateMutability": "view",
      "type": "function"
    },
    {
      "inputs": [
        {
          "internalType": "bytes32",
          "name": "role",
          "type": "bytes32"
        },
        {
          "internalType": "address",
          "name": "account",
          "type": "address"
        }
      ],
      "name": "grantRole",
      "outputs": [],
      "stateMutability": "nonpayable",
      "type": "function"
    },
    {
      "inputs": [
        {
          "internalType": "bytes32",
          "name": "role",
          "type": "bytes32"
        },
        {
          "internalType": "address",
          "name": "account",
          "type": "address"
        }
      ],
      "name": "hasRole",
      "outputs": [
        {
          "internalType": "bool",
          "name": "",
          "type": "bool"
        }
      ],
      "stateMutability": "view",
      "type": "function"
    },
    {
      "inputs": [
        {
          "internalType": "address",
          "name": "",
          "type": "address"
        }
      ],
      "name": "isLpTokenAdded",
      "outputs": [
        {
          "internalType": "bool",
          "name": "",
          "type": "bool"
        }
      ],
      "stateMutability": "view",
      "type": "function"
    },
    {
      "inputs": [
        {
          "internalType": "address",
          "name": "",
          "type": "address"
        }
      ],
      "name": "lpTokenToPoolId",
      "outputs": [
        {
          "internalType": "uint256",
          "name": "",
          "type": "uint256"
        }
      ],
      "stateMutability": "view",
      "type": "function"
    },
    {
      "inputs": [
        {
          "internalType": "uint256",
          "name": "_pid",
          "type": "uint256"
        },
        {
          "internalType": "address",
          "name": "_user",
          "type": "address"
        }
      ],
      "name": "pendingRewards",
      "outputs": [
        {
          "internalType": "uint256",
          "name": "",
          "type": "uint256"
        }
      ],
      "stateMutability": "view",
      "type": "function"
    },
    {
      "inputs": [],
      "name": "poolLength",
      "outputs": [
        {
          "internalType": "uint256",
          "name": "",
          "type": "uint256"
        }
      ],
      "stateMutability": "view",
      "type": "function"
    },
    {
      "inputs": [
        {
          "internalType": "uint256",
          "name": "",
          "type": "uint256"
        }
      ],
      "name": "pools",
      "outputs": [
        {
          "internalType": "contract IERC20",
          "name": "lpToken",
          "type": "address"
        },
        {
          "internalType": "uint256",
          "name": "allocPoint",
          "type": "uint256"
        },
        {
          "internalType": "uint256",
          "name": "lastRewardTime",
          "type": "uint256"
        },
        {
          "internalType": "uint256",
          "name": "accRewardPerShare",
          "type": "uint256"
        },
        {
          "internalType": "uint256",
          "name": "totalDeposited",
          "type": "uint256"
        },
        {
          "internalType": "string",
          "name": "name",
          "type": "string"
        },
        {
          "internalType": "bool",
          "name": "active",
          "type": "bool"
        }
      ],
      "stateMutability": "view",
      "type": "function"
    },
    {
      "inputs": [
        {
          "internalType": "bytes32",
          "name": "role",
          "type": "bytes32"
        },
        {
          "internalType": "address",
          "name": "callerConfirmation",
          "type": "address"
        }
      ],
      "name": "renounceRole",
      "outputs": [],
      "stateMutability": "nonpayable",
      "type": "function"
    },
    {
      "inputs": [
        {
          "internalType": "address",
          "name": "_token",
          "type": "address"
        },
        {
          "internalType": "address",
          "name": "_to",
          "type": "address"
        },
        {
          "internalType": "uint256",
          "name": "_amount",
          "type": "uint256"
        }
      ],
      "name": "rescueTokens",
      "outputs": [],
      "stateMutability": "nonpayable",
      "type": "function"
    },
    {
      "inputs": [
        {
          "internalType": "bytes32",
          "name": "role",
          "type": "bytes32"
        },
        {
          "internalType": "address",
          "name": "account",
          "type": "address"
        }
      ],
      "name": "revokeRole",
      "outputs": [],
      "stateMutability": "nonpayable",
      "type": "function"
    },
    {
      "inputs": [],
      "name": "rewardPerSecond",
      "outputs": [
        {
          "internalType": "uint256",
          "name": "",
          "type": "uint256"
        }
      ],
      "stateMutability": "view",
      "type": "function"
    },
    {
      "inputs": [],
      "name": "rewardToken",
      "outputs": [
        {
          "internalType": "contract IERC20",
          "name": "",
          "type": "address"
        }
      ],
      "stateMutability": "view",
      "type": "function"
    },
    {
      "inputs": [
        {
          "internalType": "uint256",
          "name": "_pid",
          "type": "uint256"
        },
        {
          "internalType": "uint256",
          "name": "_allocPoint",
          "type": "uint256"
        },
        {
          "internalType": "bool",
          "name": "_active",
          "type": "bool"
        }
      ],
      "name": "setPool",
      "outputs": [],
      "stateMutability": "nonpayable",
      "type": "function"
    },
    {
      "inputs": [
        {
          "internalType": "uint256",
          "name": "_rewardPerSecond",
          "type": "uint256"
        },
        {
          "internalType": "uint256",
          "name": "_additionalDuration",
          "type": "uint256"
        }
      ],
      "name": "setRewardRate",
      "outputs": [],
      "stateMutability": "nonpayable",
      "type": "function"
    },
    {
      "inputs": [],
      "name": "startTime",
      "outputs": [
        {
          "internalType": "uint256",
          "name": "",
          "type": "uint256"
        }
      ],
      "stateMutability": "view",
      "type": "function"
    },
    {
      "inputs": [
        {
          "internalType": "bytes4",
          "name": "interfaceId",
          "type": "bytes4"
        }
      ],
      "name": "supportsInterface",
      "outputs": [
        {
          "internalType": "bool",
          "name": "",
          "type": "bool"
        }
      ],
      "stateMutability": "view",
      "type": "function"
    },
    {
      "inputs": [],
      "name": "totalAllocPoint",
      "outputs": [
        {
          "internalType": "uint256",
          "name": "",
          "type": "uint256"
        }
      ],
      "stateMutability": "view",
      "type": "function"
    },
    {
      "inputs": [
        {
          "internalType": "address",
          "name": "_user",
          "type": "address"
        }
      ],
      "name": "totalPendingRewards",
      "outputs": [
        {
          "internalType": "uint256",
          "name": "total",
          "type": "uint256"
        }
      ],
      "stateMutability": "view",
      "type": "function"
    },
    {
      "inputs": [],
      "name": "totalRewardsDistributed",
      "outputs": [
        {
          "internalType": "uint256",
          "name": "",
          "type": "uint256"
        }
      ],
      "stateMutability": "view",
      "type": "function"
    },
    {
      "inputs": [
        {
          "internalType": "uint256",
          "name": "",
          "type": "uint256"
        },
        {
          "internalType": "address",
          "name": "",
          "type": "address"
        }
      ],
      "name": "userInfo",
      "outputs": [
        {
          "internalType": "uint256",
          "name": "amount",
          "type": "uint256"
        },
        {
          "internalType": "uint256",
          "name": "rewardDebt",
          "type": "uint256"
        },
        {
          "internalType": "uint256",
          "name": "pendingRewards",
          "type": "uint256"
        }
      ],
      "stateMutability": "view",
      "type": "function"
    },
    {
      "inputs": [
        {
          "internalType": "uint256",
          "name": "_pid",
          "type": "uint256"
        },
        {
          "internalType": "uint256",
          "name": "_amount",
          "type": "uint256"
        }
      ],
      "name": "withdraw",
      "outputs": [],
      "stateMutability": "nonpayable",
      "type": "function"
    }
  ],
  "bytecode": "0x60a060405234801561000f575f5ffd5b506040516126d63803806126d683398101604081905261002e91610210565b600180556001600160a01b03851661008d5760405162461bcd60e51b815260206004820152601460248201527f496e76616c69642072657761726420746f6b656e00000000000000000000000060448201526064015b60405180910390fd5b6001600160a01b0381166100d85760405162461bcd60e51b8152602060048201526012602482015271496e76616c696420676f7665726e616e636560701b6044820152606401610084565b6001600160a01b03851660805260068490554283116100f757426100f9565b825b600881905561010990839061025e565b6009556101165f8261014c565b506101417f3bd2f1998541a778f2b17a84ff608b734af3ddf06cc43506453ef362dcdf17f18261014c565b50505050505061027d565b5f828152602081815260408083206001600160a01b038516845290915281205460ff166101ec575f838152602081815260408083206001600160a01b03861684529091529020805460ff191660011790556101a43390565b6001600160a01b0316826001600160a01b0316847f2f8788117e7eff1d82e926ec794901d17c78024a50270940304540a733656f0d60405160405180910390a45060016101ef565b505f5b92915050565b80516001600160a01b038116811461020b575f5ffd5b919050565b5f5f5f5f5f60a08688031215610224575f5ffd5b61022d866101f5565b60208701516040880151606089015192975090955093509150610252608087016101f5565b90509295509295909350565b808201808211156101ef57634e487b7160e01b5f52601160045260245ffd5b6080516124256102b15f395f8181610517015281816113fb01528181611b2b01528181611bb30152611be701526124255ff3fe608060405234801561000f575f5ffd5b50600436106101fd575f3560e01c8063645e8d9b11610114578063ab85cfe4116100a9578063d18df53c11610079578063d18df53c146104d0578063d547741f146104e3578063e2bbb158146104f6578063ee17254614610509578063f7c618c114610512575f5ffd5b8063ab85cfe414610436578063ac4afa3814610458578063c59d48471461047e578063cea9d26f146104bd575f5ffd5b806391d14854116100e457806391d14854146103b557806393707a19146103c857806393f1a40b146103db578063a217fddf1461042f575f5ffd5b8063645e8d9b1461037157806374bf24b41461039057806378e97925146103a35780638f10369a146103ac575f5ffd5b80632f380b3511610195578063441a3e7011610165578063441a3e701461031157806346ca6bea146103245780635312ea8e1461033757806357f6a22a1461034a5780635b6dfd631461035e575f5ffd5b80632f380b35146102be5780633197cbb6146102e25780633462e0a8146102eb57806336568abe146102fe575f5ffd5b80631069f3b5116101d05780631069f3b51461025857806317caf6f114610280578063248a9ca3146102895780632f2ff15d146102ab575f5ffd5b806301ffc9a714610201578063081e3eda146102295780630962ef791461023b5780630b83a72714610250575b5f5ffd5b61021461020f366004611eea565b610551565b60405190151581526020015b60405180910390f35b6002545b604051908152602001610220565b61024e610249366004611f11565b610587565b005b61024e610723565b61026b610266366004611f43565b6108ac565b60408051928352602083019190915201610220565b61022d60075481565b61022d610297366004611f11565b5f9081526020819052604090206001015490565b61024e6102b9366004611f43565b610a01565b6102d16102cc366004611f11565b610a2b565b604051610220959493929190611f9b565b61022d60095481565b61024e6102f9366004611fdb565b610b45565b61024e61030c366004611f43565b610bbf565b61024e61031f366004611fdb565b610bf7565b61024e610332366004611ffb565b610db4565b61024e610345366004611f11565b610ee0565b61022d5f5160206123d05f395f51905f5281565b61022d61036c366004612035565b61100d565b61022d61037f366004612035565b60036020525f908152604090205481565b61024e61039e366004612062565b61116e565b61022d60085481565b61022d60065481565b6102146103c3366004611f43565b6113af565b61024e6103d6366004611f11565b6113d7565b6104146103e9366004611f43565b600560209081525f928352604080842090915290825290208054600182015460029092015490919083565b60408051938452602084019290925290820152606001610220565b61022d5f81565b610214610444366004612035565b60046020525f908152604090205460ff1681565b61046b610466366004611f11565b611423565b604051610220979695949392919061212e565b600254600754600654600854600954600a54604080519687526020870195909552938501929092526060840152608083015260a082015260c001610220565b61024e6104cb36600461217c565b611506565b61022d6104de366004611f43565b611699565b61024e6104f1366004611f43565b6117e8565b61024e610504366004611fdb565b61180c565b61022d600a5481565b6105397f000000000000000000000000000000000000000000000000000000000000000081565b6040516001600160a01b039091168152602001610220565b5f6001600160e01b03198216637965db0b60e01b148061058157506301ffc9a760e01b6001600160e01b03198316145b92915050565b61058f611a13565b60025481106105b95760405162461bcd60e51b81526004016105b0906121b6565b60405180910390fd5b5f600282815481106105cd576105cd6121dc565b5f91825260208083208584526005825260408085203386529092529220600790910290910191506105fd83611a3d565b5f8160010154670de0b6b3a76400008460030154845f015461061f9190612204565b610629919061221b565b610633919061223a565b90505f818360020154610646919061224d565b90505f811161068d5760405162461bcd60e51b81526020600482015260136024820152724e6f207265776172647320746f20636c61696d60681b60448201526064016105b0565b5f600284015560038401548354670de0b6b3a7640000916106ad91612204565b6106b7919061221b565b60018401556106c63382611b14565b80600a5f8282546106d7919061224d565b9091555050604051818152859033907fdacbdde355ba930696a362ea6738feb9f8bd52dfb3d81947558fd3217e23e3259060200160405180910390a35050505061072060018055565b50565b61072b611a13565b5f805b60025481101561083f575f8181526005602090815260408083203384529091529020805415158061076257505f8160020154115b156108365761077082611a3d565b5f8160010154670de0b6b3a764000060028581548110610792576107926121dc565b905f5260205f20906007020160030154845f01546107b09190612204565b6107ba919061221b565b6107c4919061223a565b90508082600201546107d6919061224d565b6107e0908561224d565b93505f8260020181905550670de0b6b3a764000060028481548110610807576108076121dc565b905f5260205f20906007020160030154835f01546108259190612204565b61082f919061221b565b6001830155505b5060010161072e565b505f81116108855760405162461bcd60e51b81526020600482015260136024820152724e6f207265776172647320746f20636c61696d60681b60448201526064016105b0565b61088f3382611b14565b80600a5f8282546108a0919061224d565b90915550506001805550565b6002545f90819084106108d15760405162461bcd60e51b81526004016105b0906121b6565b5f8481526005602090815260408083206001600160a01b038716845290915281206002805491929187908110610909576109096121dc565b905f5260205f20906007020190505f8160030154905081600201544211801561093557505f8260040154115b801561094257505f600754115b156109b6575f610956836002015442611c0e565b90505f60075484600101546006548461096f9190612204565b6109799190612204565b610983919061221b565b600485015490915061099d82670de0b6b3a7640000612204565b6109a7919061221b565b6109b1908461224d565b925050505b82546001840154670de0b6b3a76400006109d08484612204565b6109da919061221b565b85600201546109e9919061224d565b6109f3919061223a565b945094505050509250929050565b5f82815260208190526040902060010154610a1b81611c6d565b610a258383611c77565b50505050565b5f5f5f60605f6002805490508610610a555760405162461bcd60e51b81526004016105b0906121b6565b5f60028781548110610a6957610a696121dc565b5f918252602090912060079091020180546001820154600483015460068401546005850180549596506001600160a01b03909416949293919260ff909116908290610ab390612260565b80601f0160208091040260200160405190810160405280929190818152602001828054610adf90612260565b8015610b2a5780601f10610b0157610100808354040283529160200191610b2a565b820191905f5260205f20905b815481529060010190602001808311610b0d57829003601f168201915b50505050509150955095509550955095505091939590929450565b5f5160206123d05f395f51905f52610b5c81611c6d565b610b64611d06565b60068390558115610b7d57610b79824261224d565b6009555b6009546040805185815260208101929092527fc390a98ace15a7bb6bab611eedfdbb2685043b241a869420043cdfb23ccfee50910160405180910390a1505050565b6001600160a01b0381163314610be85760405163334bd91960e11b815260040160405180910390fd5b610bf28282611d23565b505050565b610bff611a13565b6002548210610c205760405162461bcd60e51b81526004016105b0906121b6565b5f82815260056020908152604080832033845290915290208054821115610c805760405162461bcd60e51b8152602060048201526014602482015273496e73756666696369656e742062616c616e636560601b60448201526064016105b0565b5f60028481548110610c9457610c946121dc565b905f5260205f2090600702019050610cab84611a3d565b5f8260010154670de0b6b3a76400008360030154855f0154610ccd9190612204565b610cd7919061221b565b610ce1919061223a565b905080836002015f828254610cf6919061224d565b90915550508254849084905f90610d0e90849061223a565b909155505060038201548354670de0b6b3a764000091610d2d91612204565b610d37919061221b565b836001018190555083826004015f828254610d52919061223a565b90915550508154610d6d906001600160a01b03163386611d8c565b604051848152859033907ff279e6a1f5e320cca91135676d9cb6e44ca8a08c0b88342bcdb1144f6511b5689060200160405180910390a3505050610db060018055565b5050565b5f5160206123d05f395f51905f52610dcb81611c6d565b6002548410610dec5760405162461bcd60e51b81526004016105b0906121b6565b610df4611d06565b8260028581548110610e0857610e086121dc565b905f5260205f20906007020160010154600754610e25919061223a565b610e2f919061224d565b6007819055508260028581548110610e4957610e496121dc565b905f5260205f209060070201600101819055508160028581548110610e7057610e706121dc565b905f5260205f2090600702016006015f6101000a81548160ff021916908315150217905550837fec70f7b7f8beefa9ff0456053baafec83986e3915f156e2ed04b0acb57d7dd558484604051610ed29291909182521515602082015260400190565b60405180910390a250505050565b610ee8611a13565b6002548110610f095760405162461bcd60e51b81526004016105b0906121b6565b5f60028281548110610f1d57610f1d6121dc565b5f9182526020808320858452600582526040808520338652909252922080546007909202909201925080610f895760405162461bcd60e51b81526020600482015260136024820152724e6f7468696e6720746f20776974686472617760681b60448201526064016105b0565b5f8083556001830181905560028301819055600484018054839290610faf90849061223a565b90915550508254610fca906001600160a01b03163383611d8c565b604051818152849033907fbb757047c2b5f3974fe26b7c10f732e7bce710b0952a71082702781e62ae05959060200160405180910390a350505061072060018055565b5f805b600254811015611168575f6002828154811061102e5761102e6121dc565b5f91825260208083208584526005825260408085206001600160a01b038a168652909252922080546007909202909201925015158061107057505f8160020154115b1561115e57600382015460028301544211801561109057505f8360040154115b801561109d57505f600754115b15611111575f6110b1846002015442611c0e565b90505f6007548560010154600654846110ca9190612204565b6110d49190612204565b6110de919061221b565b60048601549091506110f882670de0b6b3a7640000612204565b611102919061221b565b61110c908461224d565b925050505b60018201548254670de0b6b3a76400009061112d908490612204565b611137919061221b565b8360020154611146919061224d565b611150919061223a565b61115a908661224d565b9450505b5050600101611010565b50919050565b5f5160206123d05f395f51905f5261118581611c6d565b6001600160a01b0384166111ce5760405162461bcd60e51b815260206004820152601060248201526f24b73b30b634b2102628103a37b5b2b760811b60448201526064016105b0565b6001600160a01b0384165f9081526004602052604090205460ff161561122c5760405162461bcd60e51b8152602060048201526013602482015272506f6f6c20616c72656164792065786973747360681b60448201526064016105b0565b611234611d06565b5f600280549050905060026040518060e00160405280876001600160a01b03168152602001868152602001600854421161127057600854611272565b425b81525f6020808301829052604080840183905260608085018a9052600160809586018190528754808201895597855293839020865160079098020180546001600160a01b0319166001600160a01b0390981697909717875591850151928601929092559083015160028501558201516003840155810151600483015560a0810151909190600582019061130590826122dd565b5060c0820151816006015f6101000a81548160ff02191690831515021790555050508360075f828254611338919061224d565b90915550506001600160a01b0385165f818152600360209081526040808320859055600490915290819020805460ff191660011790555182907f57e44bf0c3041b54b85a9fdc8437eb1553c28dc93f58e86e8afe62fb112b943e906113a09088908890612398565b60405180910390a35050505050565b5f918252602082815260408084206001600160a01b0393909316845291905290205460ff1690565b5f5160206123d05f395f51905f526113ee81611c6d565b610db06001600160a01b037f000000000000000000000000000000000000000000000000000000000000000016333085611deb565b60028181548110611432575f80fd5b5f9182526020909120600790910201805460018201546002830154600384015460048501546005860180546001600160a01b03909616975093959294919390929161147c90612260565b80601f01602080910402602001604051908101604052809291908181526020018280546114a890612260565b80156114f35780601f106114ca576101008083540402835291602001916114f3565b820191905f5260205f20905b8154815290600101906020018083116114d657829003601f168201915b5050506006909301549192505060ff1687565b5f61151081611c6d565b6001600160a01b03831661155a5760405162461bcd60e51b8152602060048201526011602482015270125b9d985b1a59081c9958da5c1a595b9d607a1b60448201526064016105b0565b6001600160a01b0384165f9081526004602052604090205460ff1615611685576001600160a01b0384165f9081526003602052604081205460028054919291839081106115a9576115a96121dc565b5f918252602090912060046007909202018101546040516370a0823160e01b81523092810192909252906001600160a01b038816906370a0823190602401602060405180830381865afa158015611602573d5f5f3e3d5ffd5b505050506040513d601f19601f8201168201806040525081019061162691906123b8565b611630919061223a565b9050808411156116825760405162461bcd60e51b815260206004820152601e60248201527f43616e6e6f7420726573637565206465706f736974656420746f6b656e73000060448201526064016105b0565b50505b610a256001600160a01b0385168484611d8c565b6002545f9083106116bc5760405162461bcd60e51b81526004016105b0906121b6565b5f600284815481106116d0576116d06121dc565b5f91825260208083208784526005825260408085206001600160a01b0389168652909252922060036007909202909201908101546002820154919350904211801561171e57505f8360040154115b801561172b57505f600754115b1561179f575f61173f846002015442611c0e565b90505f6007548560010154600654846117589190612204565b6117629190612204565b61176c919061221b565b600486015490915061178682670de0b6b3a7640000612204565b611790919061221b565b61179a908461224d565b925050505b60018201548254670de0b6b3a7640000906117bb908490612204565b6117c5919061221b565b83600201546117d4919061224d565b6117de919061223a565b9695505050505050565b5f8281526020819052604090206001015461180281611c6d565b610a258383611d23565b611814611a13565b60025482106118355760405162461bcd60e51b81526004016105b0906121b6565b5f81116118795760405162461bcd60e51b81526020600482015260126024820152710416d6f756e74206d757374206265203e20360741b60448201526064016105b0565b5f6002838154811061188d5761188d6121dc565b5f9182526020909120600790910201600681015490915060ff166118e55760405162461bcd60e51b815260206004820152600f60248201526e506f6f6c206e6f742061637469766560881b60448201526064016105b0565b5f838152600560209081526040808320338452909152902061190684611a3d565b80541561195f575f8160010154670de0b6b3a76400008460030154845f015461192f9190612204565b611939919061221b565b611943919061223a565b905080826002015f828254611958919061224d565b9091555050505b8154611976906001600160a01b0316333086611deb565b82815f015f828254611988919061224d565b909155505060038201548154670de0b6b3a7640000916119a791612204565b6119b1919061221b565b816001018190555082826004015f8282546119cc919061224d565b9091555050604051838152849033907f90890809c654f11d6e72a28fa60149770a0d11ec6c92319d6ceb2bb0a4ea1a159060200160405180910390a35050610db060018055565b600260015403611a3657604051633ee5aeb560e01b815260040160405180910390fd5b6002600155565b5f60028281548110611a5157611a516121dc565b905f5260205f209060070201905080600201544211611a6e575050565b60048101541580611a7f5750600754155b15611a8e574260029091015550565b5f611a9d826002015442611c0e565b90505f600754836001015460065484611ab69190612204565b611ac09190612204565b611aca919061221b565b6004840154909150611ae482670de0b6b3a7640000612204565b611aee919061221b565b836003015f828254611b00919061224d565b909155505042600290930192909255505050565b6040516370a0823160e01b81523060048201525f907f00000000000000000000000000000000000000000000000000000000000000006001600160a01b0316906370a0823190602401602060405180830381865afa158015611b78573d5f5f3e3d5ffd5b505050506040513d601f19601f82011682018060405250810190611b9c91906123b8565b905080821115611bda57610bf26001600160a01b037f0000000000000000000000000000000000000000000000000000000000000000168483611d8c565b610bf26001600160a01b037f0000000000000000000000000000000000000000000000000000000000000000168484611d8c565b5f6009548310611c1f57505f610581565b6008548211611c2f57505f610581565b5f611c3c84600854611e24565b90505f611c4b84600954611e36565b9050818111611c5a575f611c64565b611c64828261223a565b95945050505050565b6107208133611e45565b5f611c8283836113af565b611cff575f838152602081815260408083206001600160a01b03861684529091529020805460ff19166001179055611cb73390565b6001600160a01b0316826001600160a01b0316847f2f8788117e7eff1d82e926ec794901d17c78024a50270940304540a733656f0d60405160405180910390a4506001610581565b505f610581565b5f5b60025481101561072057611d1b81611a3d565b600101611d08565b5f611d2e83836113af565b15611cff575f838152602081815260408083206001600160a01b0386168085529252808320805460ff1916905551339286917ff6391f5c32d9c69d2a47ea670b442974b53935d1edc7fd64eb21e047a839171b9190a4506001610581565b6040516001600160a01b03838116602483015260448201839052610bf291859182169063a9059cbb906064015b604051602081830303815290604052915060e01b6020820180516001600160e01b038381831617835250505050611e7e565b6040516001600160a01b038481166024830152838116604483015260648201839052610a259186918216906323b872dd90608401611db9565b5f8282188284110282185b9392505050565b5f828218828410028218611e2f565b611e4f82826113af565b610db05760405163e2517d3f60e01b81526001600160a01b0382166004820152602481018390526044016105b0565b5f5f60205f8451602086015f885af180611e9d576040513d5f823e3d81fd5b50505f513d91508115611eb4578060011415611ec1565b6001600160a01b0384163b155b15610a2557604051635274afe760e01b81526001600160a01b03851660048201526024016105b0565b5f60208284031215611efa575f5ffd5b81356001600160e01b031981168114611e2f575f5ffd5b5f60208284031215611f21575f5ffd5b5035919050565b80356001600160a01b0381168114611f3e575f5ffd5b919050565b5f5f60408385031215611f54575f5ffd5b82359150611f6460208401611f28565b90509250929050565b5f81518084528060208401602086015e5f602082860101526020601f19601f83011685010191505092915050565b60018060a01b038616815284602082015283604082015260a060608201525f611fc760a0830185611f6d565b905082151560808301529695505050505050565b5f5f60408385031215611fec575f5ffd5b50508035926020909101359150565b5f5f5f6060848603121561200d575f5ffd5b83359250602084013591506040840135801515811461202a575f5ffd5b809150509250925092565b5f60208284031215612045575f5ffd5b611e2f82611f28565b634e487b7160e01b5f52604160045260245ffd5b5f5f5f60608486031215612074575f5ffd5b61207d84611f28565b925060208401359150604084013567ffffffffffffffff81111561209f575f5ffd5b8401601f810186136120af575f5ffd5b803567ffffffffffffffff8111156120c9576120c961204e565b604051601f8201601f19908116603f0116810167ffffffffffffffff811182821017156120f8576120f861204e565b60405281815282820160200188101561210f575f5ffd5b816020840160208301375f602083830101528093505050509250925092565b60018060a01b038816815286602082015285604082015284606082015283608082015260e060a08201525f61216660e0830185611f6d565b905082151560c083015298975050505050505050565b5f5f5f6060848603121561218e575f5ffd5b61219784611f28565b92506121a560208501611f28565b929592945050506040919091013590565b6020808252600c908201526b125b9d985b1a59081c1bdbdb60a21b604082015260600190565b634e487b7160e01b5f52603260045260245ffd5b634e487b7160e01b5f52601160045260245ffd5b8082028115828204841417610581576105816121f0565b5f8261223557634e487b7160e01b5f52601260045260245ffd5b500490565b81810381811115610581576105816121f0565b80820180821115610581576105816121f0565b600181811c9082168061227457607f821691505b60208210810361116857634e487b7160e01b5f52602260045260245ffd5b601f821115610bf257805f5260205f20601f840160051c810160208510156122b75750805b601f840160051c820191505b818110156122d6575f81556001016122c3565b5050505050565b815167ffffffffffffffff8111156122f7576122f761204e565b61230b816123058454612260565b84612292565b6020601f82116001811461233d575f83156123265750848201515b5f19600385901b1c1916600184901b1784556122d6565b5f84815260208120601f198516915b8281101561236c578785015182556020948501946001909201910161234c565b508482101561238957868401515f19600387901b60f8161c191681555b50505050600190811b01905550565b828152604060208201525f6123b06040830184611f6d565b949350505050565b5f602082840312156123c8575f5ffd5b505191905056fe3bd2f1998541a778f2b17a84ff608b734af3ddf06cc43506453ef362dcdf17f1a264697066735822122017c1781135a0306c1ca644ac638071ee68ea161d74ea71cc182a06a87257360864736f6c634300081c0033",
  "linkReferences": {},
  "deployedLinkReferences": {}
}