{
  "_format": "hh-sol-artifact-1",
  "contractName": "LiquidityManager",
  "sourceName": "contracts/defi/LiquidityManager.sol",
  "abi": [
    {
      "inputs": [
        {
          "internalType": "address",
          "name": "_tutToken",
          "type": "address"
        },
        {
          "internalType": "address",
          "name": "_positionManager",
          "type": "address"
        },
        {
          "internalType": "address",
          "name": "_factory",
          "type": "address"
        },
        {
          "internalType": "address",
          "name": "_governance",
          "type": "address"
        }
      ],
      "stateMutability": "nonpayable",
      "type": "constructor"
    },
    {
      "inputs": [],
      "name": "AccessControlBadConfirmation",
      "type": "error"
    },
    {
      "inputs": [
        {
          "internalType": "address",
          "name": "account",
          "type": "address"
        },
        {
          "internalType": "bytes32",
          "name": "neededRole",
          "type": "bytes32"
        }
      ],
      "name": "AccessControlUnauthorizedAccount",
      "type": "error"
    },
    {
      "inputs": [],
      "name": "ReentrancyGuardReentrantCall",
      "type": "error"
    },
    {
      "inputs": [
        {
          "internalType": "address",
          "name": "token",
          "type": "address"
        }
      ],
      "name": "SafeERC20FailedOperation",
      "type": "error"
    },
    {
      "anonymous": false,
      "inputs": [
        {
          "indexed": true,
          "internalType": "uint256",
          "name": "tokenId",
          "type": "uint256"
        },
        {
          "indexed": false,
          "internalType": "uint256",
          "name": "amount0",
          "type": "uint256"
        },
        {
          "indexed": false,
          "internalType": "uint256",
          "name": "amount1",
          "type": "uint256"
        }
      ],
      "name": "FeesCollected",
      "type": "event"
    },
    {
      "anonymous": false,
      "inputs": [
        {
          "indexed": true,
          "internalType": "uint256",
          "name": "tokenId",
          "type": "uint256"
        },
        {
          "indexed": false,
          "internalType": "address",
          "name": "token0",
          "type": "address"
        },
        {
          "indexed": false,
          "internalType": "address",
          "name": "token1",
          "type": "address"
        },
        {
          "indexed": false,
          "internalType": "uint256",
          "name": "amount0",
          "type": "uint256"
        },
        {
          "indexed": false,
          "internalType": "uint256",
          "name": "amount1",
          "type": "uint256"
        },
        {
          "indexed": false,
          "internalType": "uint128",
          "name": "liquidity",
          "type": "uint128"
        }
      ],
      "name": "LiquidityAdded",
      "type": "event"
    },
    {
      "anonymous": false,
      "inputs": [
        {
          "indexed": true,
          "internalType": "uint256",
          "name": "tokenId",
          "type": "uint256"
        },
        {
          "indexed": false,
          "internalType": "uint256",
          "name": "amount0",
          "type": "uint256"
        },
        {
          "indexed": false,
          "internalType": "uint256",
          "name": "amount1",
          "type": "uint256"
        }
      ],
      "name": "LiquidityRemoved",
      "type": "event"
    },
    {
      "anonymous": false,
      "inputs": [
        {
          "indexed": true,
          "internalType": "address",
          "name": "token0",
          "type": "address"
        },
        {
          "indexed": true,
          "internalType": "address",
          "name": "token1",
          "type": "address"
        },
        {
          "indexed": false,
          "internalType": "uint24",
          "name": "fee",
          "type": "uint24"
        },
        {
          "indexed": false,
          "internalType": "address",
          "name": "pool",
          "type": "address"
        }
      ],
      "name": "PoolCreated",
      "type": "event"
    },
    {
      "anonymous": false,
      "inputs": [
        {
          "indexed": true,
          "internalType": "uint256",
          "name": "tokenId",
          "type": "uint256"
        },
        {
          "indexed": true,
          "internalType": "address",
          "name": "to",
          "type": "address"
        }
      ],
      "name": "PositionTransferred",
      "type": "event"
    },
    {
      "anonymous": false,
      "inputs": [
        {
          "indexed": true,
          "internalType": "bytes32",
          "name": "role",
          "type": "bytes32"
        },
        {
          "indexed": true,
          "internalType": "bytes32",
          "name": "previousAdminRole",
          "type": "bytes32"
        },
        {
          "indexed": true,
          "internalType": "bytes32",
          "name": "newAdminRole",
          "type": "bytes32"
        }
      ],
      "name": "RoleAdminChanged",
      "type": "event"
    },
    {
      "anonymous": false,
      "inputs": [
        {
          "indexed": true,
          "internalType": "bytes32",
          "name": "role",
          "type": "bytes32"
        },
        {
          "indexed": true,
          "internalType": "address",
          "name": "account",
          "type": "address"
        },
        {
          "indexed": true,
          "internalType": "address",
          "name": "sender",
          "type": "address"
        }
      ],
      "name": "RoleGranted",
      "type": "event"
    },
    {
      "anonymous": false,
      "inputs": [
        {
          "indexed": true,
          "internalType": "bytes32",
          "name": "role",
          "type": "bytes32"
        },
        {
          "indexed": true,
          "internalType": "address",
          "name": "account",
          "type": "address"
        },
        {
          "indexed": true,
          "internalType": "address",
          "name": "sender",
          "type": "address"
        }
      ],
      "name": "RoleRevoked",
      "type": "event"
    },
    {
      "inputs": [],
      "name": "DEFAULT_ADMIN_ROLE",
      "outputs": [
        {
          "internalType": "bytes32",
          "name": "",
          "type": "bytes32"
        }
      ],
      "stateMutability": "view",
      "type": "function"
    },
    {
      "inputs": [],
      "name": "FEE_HIGH",
      "outputs": [
        {
          "internalType": "uint24",
          "name": "",
          "type": "uint24"
        }
      ],
      "stateMutability": "view",
      "type": "function"
    },
    {
      "inputs": [],
      "name": "FEE_LOW",
      "outputs": [
        {
          "internalType": "uint24",
          "name": "",
          "type": "uint24"
        }
      ],
      "stateMutability": "view",
      "type": "function"
    },
    {
      "inputs": [],
      "name": "FEE_MEDIUM",
      "outputs": [
        {
          "internalType": "uint24",
          "name": "",
          "type": "uint24"
        }
      ],
      "stateMutability": "view",
      "type": "function"
    },
    {
      "inputs": [],
      "name": "LIQUIDITY_MANAGER_ROLE",
      "outputs": [
        {
          "internalType": "bytes32",
          "name": "",
          "type": "bytes32"
        }
      ],
      "stateMutability": "view",
      "type": "function"
    },
    {
      "inputs": [
        {
          "internalType": "address",
          "name": "pairedToken",
          "type": "address"
        },
        {
          "internalType": "uint24",
          "name": "fee",
          "type": "uint24"
        },
        {
          "internalType": "uint256",
          "name": "tutAmount",
          "type": "uint256"
        },
        {
          "internalType": "uint256",
          "name": "pairedAmount",
          "type": "uint256"
        },
        {
          "internalType": "int24",
          "name": "tickLower",
          "type": "int24"
        },
        {
          "internalType": "int24",
          "name": "tickUpper",
          "type": "int24"
        }
      ],
      "name": "addLiquidity",
      "outputs": [
        {
          "internalType": "uint256",
          "name": "tokenId",
          "type": "uint256"
        },
        {
          "internalType": "uint128",
          "name": "liquidity",
          "type": "uint128"
        }
      ],
      "stateMutability": "nonpayable",
      "type": "function"
    },
    {
      "inputs": [],
      "name": "collectAllFees",
      "outputs": [],
      "stateMutability": "nonpayable",
      "type": "function"
    },
    {
      "inputs": [
        {
          "internalType": "uint256",
          "name": "tokenId",
          "type": "uint256"
        }
      ],
      "name": "collectFees",
      "outputs": [
        {
          "internalType": "uint256",
          "name": "amount0",
          "type": "uint256"
        },
        {
          "internalType": "uint256",
          "name": "amount1",
          "type": "uint256"
        }
      ],
      "stateMutability": "nonpayable",
      "type": "function"
    },
    {
      "inputs": [
        {
          "internalType": "address",
          "name": "pairedToken",
          "type": "address"
        },
        {
          "internalType": "uint24",
          "name": "fee",
          "type": "uint24"
        },
        {
          "internalType": "uint160",
          "name": "initialPrice",
          "type": "uint160"
        }
      ],
      "name": "createPool",
      "outputs": [
        {
          "internalType": "address",
          "name": "pool",
          "type": "address"
        }
      ],
      "stateMutability": "nonpayable",
      "type": "function"
    },
    {
      "inputs": [],
      "name": "factory",
      "outputs": [
        {
          "internalType": "contract IUniswapV3Factory",
          "name": "",
          "type": "address"
        }
      ],
      "stateMutability": "view",
      "type": "function"
    },
    {
      "inputs": [],
      "name": "getActivePositionCount",
      "outputs": [
        {
          "internalType": "uint256",
          "name": "count",
          "type": "uint256"
        }
      ],
      "stateMutability": "view",
      "type": "function"
    },
    {
      "inputs": [],
      "name": "getAllPositions",
      "outputs": [
        {
          "internalType": "uint256[]",
          "name": "",
          "type": "uint256[]"
        }
      ],
      "stateMutability": "view",
      "type": "function"
    },
    {
      "inputs": [
        {
          "internalType": "address",
          "name": "pairedToken",
          "type": "address"
        },
        {
          "internalType": "uint24",
          "name": "fee",
          "type": "uint24"
        }
      ],
      "name": "getPoolAddress",
      "outputs": [
        {
          "internalType": "address",
          "name": "",
          "type": "address"
        }
      ],
      "stateMutability": "view",
      "type": "function"
    },
    {
      "inputs": [
        {
          "internalType": "uint256",
          "name": "tokenId",
          "type": "uint256"
        }
      ],
      "name": "getPosition",
      "outputs": [
        {
          "internalType": "address",
          "name": "token0",
          "type": "address"
        },
        {
          "internalType": "address",
          "name": "token1",
          "type": "address"
        },
        {
          "internalType": "uint24",
          "name": "fee",
          "type": "uint24"
        },
        {
          "internalType": "uint128",
          "name": "liquidity",
          "type": "uint128"
        },
        {
          "internalType": "bool",
          "name": "active",
          "type": "bool"
        }
      ],
      "stateMutability": "view",
      "type": "function"
    },
    {
      "inputs": [
        {
          "internalType": "bytes32",
          "name": "role",
          "type": "bytes32"
        }
      ],
      "name": "getRoleAdmin",
      "outputs": [
        {
          "internalType": "bytes32",
          "name": "",
          "type": "bytes32"
        }
      ],
      "stateMutability": "view",
      "type": "function"
    },
    {
      "inputs": [
        {
          "internalType": "bytes32",
          "name": "role",
          "type": "bytes32"
        },
        {
          "internalType": "address",
          "name": "account",
          "type": "address"
        }
      ],
      "name": "grantRole",
      "outputs": [],
      "stateMutability": "nonpayable",
      "type": "function"
    },
    {
      "inputs": [
        {
          "internalType": "bytes32",
          "name": "role",
          "type": "bytes32"
        },
        {
          "internalType": "address",
          "name": "account",
          "type": "address"
        }
      ],
      "name": "hasRole",
      "outputs": [
        {
          "internalType": "bool",
          "name": "",
          "type": "bool"
        }
      ],
      "stateMutability": "view",
      "type": "function"
    },
    {
      "inputs": [
        {
          "internalType": "address",
          "name": "",
          "type": "address"
        },
        {
          "internalType": "address",
          "name": "",
          "type": "address"
        },
        {
          "internalType": "uint256",
          "name": "",
          "type": "uint256"
        },
        {
          "internalType": "bytes",
          "name": "",
          "type": "bytes"
        }
      ],
      "name": "onERC721Received",
      "outputs": [
        {
          "internalType": "bytes4",
          "name": "",
          "type": "bytes4"
        }
      ],
      "stateMutability": "pure",
      "type": "function"
    },
    {
      "inputs": [
        {
          "internalType": "address",
          "name": "",
          "type": "address"
        },
        {
          "internalType": "address",
          "name": "",
          "type": "address"
        }
      ],
      "name": "pairToPosition",
      "outputs": [
        {
          "internalType": "uint256",
          "name": "",
          "type": "uint256"
        }
      ],
      "stateMutability": "view",
      "type": "function"
    },
    {
      "inputs": [
        {
          "internalType": "uint256",
          "name": "",
          "type": "uint256"
        }
      ],
      "name": "positionIds",
      "outputs": [
        {
          "internalType": "uint256",
          "name": "",
          "type": "uint256"
        }
      ],
      "stateMutability": "view",
      "type": "function"
    },
    {
      "inputs": [],
      "name": "positionManager",
      "outputs": [
        {
          "internalType": "contract INonfungiblePositionManager",
          "name": "",
          "type": "address"
        }
      ],
      "stateMutability": "view",
      "type": "function"
    },
    {
      "inputs": [
        {
          "internalType": "uint256",
          "name": "",
          "type": "uint256"
        }
      ],
      "name": "positions",
      "outputs": [
        {
          "internalType": "uint256",
          "name": "tokenId",
          "type": "uint256"
        },
        {
          "internalType": "address",
          "name": "token0",
          "type": "address"
        },
        {
          "internalType": "address",
          "name": "token1",
          "type": "address"
        },
        {
          "internalType": "uint24",
          "name": "fee",
          "type": "uint24"
        },
        {
          "internalType": "uint128",
          "name": "liquidity",
          "type": "uint128"
        },
        {
          "internalType": "bool",
          "name": "active",
          "type": "bool"
        }
      ],
      "stateMutability": "view",
      "type": "function"
    },
    {
      "inputs": [
        {
          "internalType": "uint256",
          "name": "tokenId",
          "type": "uint256"
        },
        {
          "internalType": "uint128",
          "name": "liquidityToRemove",
          "type": "uint128"
        }
      ],
      "name": "removeLiquidity",
      "outputs": [
        {
          "internalType": "uint256",
          "name": "amount0",
          "type": "uint256"
        },
        {
          "internalType": "uint256",
          "name": "amount1",
          "type": "uint256"
        }
      ],
      "stateMutability": "nonpayable",
      "type": "function"
    },
    {
      "inputs": [
        {
          "internalType": "bytes32",
          "name": "role",
          "type": "bytes32"
        },
        {
          "internalType": "address",
          "name": "callerConfirmation",
          "type": "address"
        }
      ],
      "name": "renounceRole",
      "outputs": [],
      "stateMutability": "nonpayable",
      "type": "function"
    },
    {
      "inputs": [
        {
          "internalType": "address",
          "name": "token",
          "type": "address"
        },
        {
          "internalType": "address",
          "name": "to",
          "type": "address"
        },
        {
          "internalType": "uint256",
          "name": "amount",
          "type": "uint256"
        }
      ],
      "name": "rescueTokens",
      "outputs": [],
      "stateMutability": "nonpayable",
      "type": "function"
    },
    {
      "inputs": [
        {
          "internalType": "bytes32",
          "name": "role",
          "type": "bytes32"
        },
        {
          "internalType": "address",
          "name": "account",
          "type": "address"
        }
      ],
      "name": "revokeRole",
      "outputs": [],
      "stateMutability": "nonpayable",
      "type": "function"
    },
    {
      "inputs": [
        {
          "internalType": "bytes4",
          "name": "interfaceId",
          "type": "bytes4"
        }
      ],
      "name": "supportsInterface",
      "outputs": [
        {
          "internalType": "bool",
          "name": "",
          "type": "bool"
        }
      ],
      "stateMutability": "view",
      "type": "function"
    },
    {
      "inputs": [
        {
          "internalType": "uint256",
          "name": "tokenId",
          "type": "uint256"
        },
        {
          "internalType": "address",
          "name": "to",
          "type": "address"
        }
      ],
      "name": "transferPosition",
      "outputs": [],
      "stateMutability": "nonpayable",
      "type": "function"
    },
    {
      "inputs": [],
      "name": "tutToken",
      "outputs": [
        {
          "internalType": "contract IERC20",
          "name": "",
          "type": "address"
        }
      ],
      "stateMutability": "view",
      "type": "function"
    }
  ],
  "bytecode": "0x60e060405234801561000f575f5ffd5b506040516126a53803806126a583398101604081905261002e91610292565b600180556001600160a01b03841661008d5760405162461bcd60e51b815260206004820152601360248201527f496e76616c69642054555420616464726573730000000000000000000000000060448201526064015b60405180910390fd5b6001600160a01b0383166100e35760405162461bcd60e51b815260206004820152601860248201527f496e76616c696420706f736974696f6e206d616e6167657200000000000000006044820152606401610084565b6001600160a01b03821661012b5760405162461bcd60e51b815260206004820152600f60248201526e496e76616c696420666163746f727960881b6044820152606401610084565b6001600160a01b0381166101765760405162461bcd60e51b8152602060048201526012602482015271496e76616c696420676f7665726e616e636560701b6044820152606401610084565b6001600160a01b0380851660c052838116608052821660a0526101995f826101ce565b506101c47f77e60b99a50d27fb027f6912a507d956105b4148adab27a86d235c8bcca8fa2f826101ce565b50505050506102e3565b5f828152602081815260408083206001600160a01b038516845290915281205460ff1661026e575f838152602081815260408083206001600160a01b03861684529091529020805460ff191660011790556102263390565b6001600160a01b0316826001600160a01b0316847f2f8788117e7eff1d82e926ec794901d17c78024a50270940304540a733656f0d60405160405180910390a4506001610271565b505f5b92915050565b80516001600160a01b038116811461028d575f5ffd5b919050565b5f5f5f5f608085870312156102a5575f5ffd5b6102ae85610277565b93506102bc60208601610277565b92506102ca60408601610277565b91506102d860608601610277565b905092959194509250565b60805160a05160c0516123216103845f395f81816102fd0152818161075a0152818161078701528181611746015281816117c401526119d801525f81816104c901528181611805015281816118a40152611a1901525f818161038a0152818161080e0152818161089f015281816109ee01528181610b5a01528181610e8201528181610fd301528181611243015281816112ef015261151c01526123215ff3fe608060405234801561000f575f5ffd5b50600436106101c6575f3560e01c8063791b98bc116100fe578063c45a01551161009e578063d547741f1161006e578063d547741f1461050f578063d9ac3e9a14610522578063eb02c30114610535578063f1c5f6d3146105df575f5ffd5b8063c45a0155146104c4578063c5b01a23146104eb578063ca216247146104f3578063cea9d26f146104fc575f5ffd5b8063939c5f7a116100d9578063939c5f7a146103e757806399fbab88146103fa578063a217fddf146104aa578063b17acdcd146104b1575f5ffd5b8063791b98bc14610385578063911757ba146103ac57806391d14854146103d4575f5ffd5b80633add5c051161016957806355bd513f1161014457806355bd513f1461033757806363075eb91461034a578063686f2c90146103535780636fda16801461035b575f5ffd5b80633add5c05146102ab5780633fc21900146102c857806352e33ab3146102f8575f5ffd5b8063242f0551116101a4578063242f05511461023f578063248a9ca3146102615780632f2ff15d1461028357806336568abe14610298575f5ffd5b806301ffc9a7146101ca578063150b7a02146101f257806318f56a0a1461022a575b5f5ffd5b6101dd6101d8366004611d37565b6105f2565b60405190151581526020015b60405180910390f35b610211610200366004611d79565b630a85bd0160e11b95945050505050565b6040516001600160e01b031990911681526020016101e9565b610232610628565b6040516101e99190611e12565b6102535f5160206122cc5f395f51905f5281565b6040519081526020016101e9565b61025361026f366004611e54565b5f9081526020819052604090206001015490565b610296610291366004611e6b565b61067e565b005b6102966102a6366004611e6b565b6106a8565b6102b46101f481565b60405162ffffff90911681526020016101e9565b6102db6102d6366004611ec1565b6106e0565b604080519283526001600160801b039091166020830152016101e9565b61031f7f000000000000000000000000000000000000000000000000000000000000000081565b6040516001600160a01b0390911681526020016101e9565b610296610345366004611e6b565b610e02565b6102b461271081565b610296610f2b565b610253610369366004611f25565b600460209081525f928352604080842090915290825290205481565b61031f7f000000000000000000000000000000000000000000000000000000000000000081565b6103bf6103ba366004611f65565b6110bb565b604080519283526020830191909152016101e9565b6101dd6103e2366004611e6b565b61141a565b6102536103f5366004611e54565b611442565b610461610408366004611e54565b600260208190525f9182526040909120805460018201549282015460039092015490926001600160a01b039081169290811691600160a01b90910462ffffff16906001600160801b03811690600160801b900460ff1686565b604080519687526001600160a01b039586166020880152939094169285019290925262ffffff1660608401526001600160801b03166080830152151560a082015260c0016101e9565b6102535f81565b6103bf6104bf366004611e54565b611461565b61031f7f000000000000000000000000000000000000000000000000000000000000000081565b6102536115ea565b6102b4610bb881565b61029661050a366004611f88565b611653565b61029661051d366004611e6b565b6116bb565b61031f610530366004611fc6565b6116df565b610598610543366004611e54565b5f9081526002602081905260409091206001810154918101546003909101546001600160a01b039283169392821692600160a01b90920462ffffff16916001600160801b03821691600160801b900460ff1690565b604080516001600160a01b03968716815295909416602086015262ffffff909216928401929092526001600160801b0390911660608301521515608082015260a0016101e9565b61031f6105ed36600461200c565b6119d0565b5f6001600160e01b03198216637965db0b60e01b148061062257506301ffc9a760e01b6001600160e01b03198316145b92915050565b6060600380548060200260200160405190810160405280929190818152602001828054801561067457602002820191905f5260205f20905b815481526020019060010190808311610660575b5050505050905090565b5f8281526020819052604090206001015461069881611a9a565b6106a28383611aa4565b50505050565b6001600160a01b03811633146106d15760405163334bd91960e11b815260040160405180910390fd5b6106db8282611b33565b505050565b5f5f5f5160206122cc5f395f51905f526106f981611a9a565b610701611b9c565b6001600160a01b0389166107535760405162461bcd60e51b815260206004820152601460248201527324b73b30b634b2103830b4b932b2103a37b5b2b760611b60448201526064015b60405180910390fd5b5f5f61077f7f00000000000000000000000000000000000000000000000000000000000000008c611bc6565b915091505f5f7f00000000000000000000000000000000000000000000000000000000000000006001600160a01b0316846001600160a01b0316146107c557898b6107c8565b8a8a5b90925090506107e26001600160a01b038516333085611bf6565b6107f76001600160a01b038416333084611bf6565b60405163095ea7b360e01b81526001600160a01b037f0000000000000000000000000000000000000000000000000000000000000000811660048301526024820184905285169063095ea7b3906044016020604051808303815f875af1158015610863573d5f5f3e3d5ffd5b505050506040513d601f19601f82011682018060405250810190610887919061203f565b5060405163095ea7b360e01b81526001600160a01b037f0000000000000000000000000000000000000000000000000000000000000000811660048301526024820183905284169063095ea7b3906044016020604051808303815f875af11580156108f4573d5f5f3e3d5ffd5b505050506040513d601f19601f82011682018060405250810190610918919061203f565b506001600160a01b038085165f90815260046020908152604080832093871683529290522054801580159061096457505f81815260026020526040902060030154600160801b900460ff165b15610ac1575f6040518060c001604052808381526020018581526020018481526020015f81526020015f8152602001426107086109a19190612072565b90526040805163219f5d1760e01b81528251600482015260208301516024820152908201516044820152606082015160648201526080820151608482015260a082015160a48201529091507f00000000000000000000000000000000000000000000000000000000000000006001600160a01b03169063219f5d179060c4016060604051808303815f875af1158015610a3c573d5f5f3e3d5ffd5b505050506040513d601f19601f82011682018060405250810190610a609190612085565b5f8581526002602052604081206003018054969d50939b5091965094508a938a929190610a979084906001600160801b03166120b9565b92506101000a8154816001600160801b0302191690836001600160801b0316021790555050610d85565b5f604051806101600160405280876001600160a01b03168152602001866001600160a01b031681526020018f62ffffff1681526020018c60020b81526020018b60020b81526020018581526020018481526020015f81526020015f8152602001306001600160a01b0316815260200142610708610b3e9190612072565b9052604051634418b22b60e11b81529091506001600160a01b037f00000000000000000000000000000000000000000000000000000000000000001690638831645690610b8f9084906004016120d8565b6080604051808303815f875af1158015610bab573d5f5f3e3d5ffd5b505050506040513d601f19601f82011682018060405250810190610bcf919061219c565b809650819750829b50839c50505050506040518060c001604052808a8152602001876001600160a01b03168152602001866001600160a01b031681526020018f62ffffff168152602001896001600160801b031681526020016001151581525060025f8b81526020019081526020015f205f820151815f01556020820151816001015f6101000a8154816001600160a01b0302191690836001600160a01b031602179055506040820151816002015f6101000a8154816001600160a01b0302191690836001600160a01b0316021790555060608201518160020160146101000a81548162ffffff021916908362ffffff1602179055506080820151816003015f6101000a8154816001600160801b0302191690836001600160801b0316021790555060a08201518160030160106101000a81548160ff021916908315150217905550905050600389908060018154018082558091505060019003905f5260205f20015f90919091909150558860045f886001600160a01b03166001600160a01b031681526020019081526020015f205f876001600160a01b03166001600160a01b031681526020019081526020015f2081905550505b604080516001600160a01b03808816825286166020820152908101849052606081018390526001600160801b038816608082015288907fd91f708d687a3cc150a08292562240a00a3f3f1825eb5f217df895be519905059060a00160405180910390a25050505050610df660018055565b50965096945050505050565b5f610e0c81611a9a565b6001600160a01b038216610e565760405162461bcd60e51b8152602060048201526011602482015270125b9d985b1a59081c9958da5c1a595b9d607a1b604482015260640161074a565b604051632142170760e11b81523060048201526001600160a01b038381166024830152604482018590527f000000000000000000000000000000000000000000000000000000000000000016906342842e0e906064015f604051808303815f87803b158015610ec3575f5ffd5b505af1158015610ed5573d5f5f3e3d5ffd5b5050505f84815260026020526040808220600301805460ff60801b19169055516001600160a01b038516925085917f5a5dd07e850317c0ad52f598509348a01f97aa8b18322de3a1991cc62e10a13991a3505050565b5f5160206122cc5f395f51905f52610f4281611a9a565b610f4a611b9c565b5f5b6003548110156110ae575f60038281548110610f6a57610f6a6121d8565b5f918252602080832090910154808352600290915260409091206003015490915060ff600160801b90910416156110a557604080516080810182528281523360208201526001600160801b038183018190526060820152905163fc6f786560e01b81525f9081907f00000000000000000000000000000000000000000000000000000000000000006001600160a01b03169063fc6f7865906110109086906004016121ec565b60408051808303815f875af115801561102b573d5f5f3e3d5ffd5b505050506040513d601f19601f8201168201806040525081019061104f919061222f565b915091505f82118061106057505f81115b156110a157604080518381526020810183905285917fa54e6c2fc0861aa9c991b26891d71059d517983b9e84b91020f42609c452eb9d910160405180910390a25b5050505b50600101610f4c565b506110b860018055565b50565b5f5f5f5160206122cc5f395f51905f526110d481611a9a565b6110dc611b9c565b5f8581526002602052604090206003810154600160801b900460ff1661113a5760405162461bcd60e51b8152602060048201526013602482015272506f736974696f6e206e6f742061637469766560681b604482015260640161074a565b5f6001600160801b03861615611150578561115f565b60038201546001600160801b03165b60038301549091506001600160801b0390811690821611156111bc5760405162461bcd60e51b8152602060048201526016602482015275496e73756666696369656e74206c697175696469747960501b604482015260640161074a565b5f6040518060a00160405280898152602001836001600160801b031681526020015f81526020015f8152602001426107086111f79190612072565b905260408051630624e65f60e11b81528251600482015260208301516001600160801b0316602482015290820151604482015260608201516064820152608082015160848201529091507f00000000000000000000000000000000000000000000000000000000000000006001600160a01b031690630c49ccbe9060a40160408051808303815f875af1158015611290573d5f5f3e3d5ffd5b505050506040513d601f19601f820116820180604052508101906112b4919061222f565b604080516080810182528b81523360208201526001600160801b038183018190526060820152905163fc6f786560e01b8152929850909650907f00000000000000000000000000000000000000000000000000000000000000006001600160a01b03169063fc6f78659061132c9084906004016121ec565b60408051808303815f875af1158015611347573d5f5f3e3d5ffd5b505050506040513d601f19601f8201168201806040525081019061136b919061222f565b50506003840180548491905f9061138c9084906001600160801b0316612251565b82546101009290920a6001600160801b038181021990931691831602179091556003860154165f0390506113ca5760038401805460ff60801b191690555b60408051888152602081018890528a917f0bb89aa54ed6940a7e7167bd262b2400d63945045ceff1a52a05f2601ed215f1910160405180910390a25050505061141260018055565b509250929050565b5f918252602082815260408084206001600160a01b0393909316845291905290205460ff1690565b60038181548110611451575f80fd5b5f91825260209091200154905081565b5f5f5f5160206122cc5f395f51905f5261147a81611a9a565b611482611b9c565b5f8481526002602052604090206003810154600160801b900460ff16806114a95750805485145b6114e85760405162461bcd60e51b815260206004820152601060248201526f24b73b30b634b2103837b9b4ba34b7b760811b604482015260640161074a565b604080516080810182528681523360208201526001600160801b038183018190526060820152905163fc6f786560e01b81527f00000000000000000000000000000000000000000000000000000000000000006001600160a01b03169063fc6f7865906115599084906004016121ec565b60408051808303815f875af1158015611574573d5f5f3e3d5ffd5b505050506040513d601f19601f82011682018060405250810190611598919061222f565b604080518381526020810183905292975090955087917fa54e6c2fc0861aa9c991b26891d71059d517983b9e84b91020f42609c452eb9d910160405180910390a250506115e460018055565b50915091565b5f805b60035481101561164f5760025f6003838154811061160d5761160d6121d8565b905f5260205f20015481526020019081526020015f2060030160109054906101000a900460ff1615611647578161164381612270565b9250505b6001016115ed565b5090565b5f61165d81611a9a565b6001600160a01b0383166116a75760405162461bcd60e51b8152602060048201526011602482015270125b9d985b1a59081c9958da5c1a595b9d607a1b604482015260640161074a565b6106a26001600160a01b0385168484611c5d565b5f828152602081905260409020600101546116d581611a9a565b6106a28383611b33565b5f5f5160206122cc5f395f51905f526116f781611a9a565b6001600160a01b0385166117445760405162461bcd60e51b815260206004820152601460248201527324b73b30b634b2103830b4b932b2103a37b5b2b760611b604482015260640161074a565b7f00000000000000000000000000000000000000000000000000000000000000006001600160a01b0316856001600160a01b0316036117bd5760405162461bcd60e51b815260206004820152601560248201527421b0b73737ba103830b4b9103bb4ba341039b2b63360591b604482015260640161074a565b5f5f6117e97f000000000000000000000000000000000000000000000000000000000000000088611bc6565b604051630b4c774160e11b815291935091506001600160a01b037f00000000000000000000000000000000000000000000000000000000000000001690631698ee829061183e90859085908b90600401612288565b602060405180830381865afa158015611859573d5f5f3e3d5ffd5b505050506040513d601f19601f8201168201806040525081019061187d91906122b0565b93506001600160a01b0384166119c65760405163a167129560e01b81526001600160a01b037f0000000000000000000000000000000000000000000000000000000000000000169063a1671295906118dd90859085908b90600401612288565b6020604051808303815f875af11580156118f9573d5f5f3e3d5ffd5b505050506040513d601f19601f8201168201806040525081019061191d91906122b0565b60405163f637731d60e01b81526001600160a01b0387811660048301529195509085169063f637731d906024015f604051808303815f87803b158015611961575f5ffd5b505af1158015611973573d5f5f3e3d5ffd5b50506040805162ffffff8a1681526001600160a01b0388811660208301528086169450861692507f97d23878912fda7f82bd5a8502f2c6e9086f5a4728f9054627788b3162f86ced910160405180910390a35b5050509392505050565b5f5f5f6119fd7f000000000000000000000000000000000000000000000000000000000000000086611bc6565b604051630b4c774160e11b815291935091506001600160a01b037f00000000000000000000000000000000000000000000000000000000000000001690631698ee8290611a5290859085908990600401612288565b602060405180830381865afa158015611a6d573d5f5f3e3d5ffd5b505050506040513d601f19601f82011682018060405250810190611a9191906122b0565b95945050505050565b6110b88133611c8e565b5f611aaf838361141a565b611b2c575f838152602081815260408083206001600160a01b03861684529091529020805460ff19166001179055611ae43390565b6001600160a01b0316826001600160a01b0316847f2f8788117e7eff1d82e926ec794901d17c78024a50270940304540a733656f0d60405160405180910390a4506001610622565b505f610622565b5f611b3e838361141a565b15611b2c575f838152602081815260408083206001600160a01b0386168085529252808320805460ff1916905551339286917ff6391f5c32d9c69d2a47ea670b442974b53935d1edc7fd64eb21e047a839171b9190a4506001610622565b600260015403611bbf57604051633ee5aeb560e01b815260040160405180910390fd5b6002600155565b5f5f826001600160a01b0316846001600160a01b031610611be8578284611beb565b83835b909590945092505050565b6040516001600160a01b0384811660248301528381166044830152606482018390526106a29186918216906323b872dd906084015b604051602081830303815290604052915060e01b6020820180516001600160e01b038381831617835250505050611ccb565b6040516001600160a01b038381166024830152604482018390526106db91859182169063a9059cbb90606401611c2b565b611c98828261141a565b611cc75760405163e2517d3f60e01b81526001600160a01b03821660048201526024810183905260440161074a565b5050565b5f5f60205f8451602086015f885af180611cea576040513d5f823e3d81fd5b50505f513d91508115611d01578060011415611d0e565b6001600160a01b0384163b155b156106a257604051635274afe760e01b81526001600160a01b038516600482015260240161074a565b5f60208284031215611d47575f5ffd5b81356001600160e01b031981168114611d5e575f5ffd5b9392505050565b6001600160a01b03811681146110b8575f5ffd5b5f5f5f5f5f60808688031215611d8d575f5ffd5b8535611d9881611d65565b94506020860135611da881611d65565b935060408601359250606086013567ffffffffffffffff811115611dca575f5ffd5b8601601f81018813611dda575f5ffd5b803567ffffffffffffffff811115611df0575f5ffd5b886020828401011115611e01575f5ffd5b959894975092955050506020019190565b602080825282518282018190525f918401906040840190835b81811015611e49578351835260209384019390920191600101611e2b565b509095945050505050565b5f60208284031215611e64575f5ffd5b5035919050565b5f5f60408385031215611e7c575f5ffd5b823591506020830135611e8e81611d65565b809150509250929050565b803562ffffff81168114611eab575f5ffd5b919050565b8035600281900b8114611eab575f5ffd5b5f5f5f5f5f5f60c08789031215611ed6575f5ffd5b8635611ee181611d65565b9550611eef60208801611e99565b94506040870135935060608701359250611f0b60808801611eb0565b9150611f1960a08801611eb0565b90509295509295509295565b5f5f60408385031215611f36575f5ffd5b8235611f4181611d65565b91506020830135611e8e81611d65565b6001600160801b03811681146110b8575f5ffd5b5f5f60408385031215611f76575f5ffd5b823591506020830135611e8e81611f51565b5f5f5f60608486031215611f9a575f5ffd5b8335611fa581611d65565b92506020840135611fb581611d65565b929592945050506040919091013590565b5f5f5f60608486031215611fd8575f5ffd5b8335611fe381611d65565b9250611ff160208501611e99565b9150604084013561200181611d65565b809150509250925092565b5f5f6040838503121561201d575f5ffd5b823561202881611d65565b915061203660208401611e99565b90509250929050565b5f6020828403121561204f575f5ffd5b81518015158114611d5e575f5ffd5b634e487b7160e01b5f52601160045260245ffd5b808201808211156106225761062261205e565b5f5f5f60608486031215612097575f5ffd5b83516120a281611f51565b602085015160409095015190969495509392505050565b6001600160801b0381811683821601908111156106225761062261205e565b81516001600160a01b031681526101608101602083015161210460208401826001600160a01b03169052565b50604083015161211b604084018262ffffff169052565b506060830151612130606084018260020b9052565b506080830151612145608084018260020b9052565b5060a083015160a083015260c083015160c083015260e083015160e083015261010083015161010083015261012083015161218c6101208401826001600160a01b03169052565b5061014092830151919092015290565b5f5f5f5f608085870312156121af575f5ffd5b845160208601519094506121c281611f51565b6040860151606090960151949790965092505050565b634e487b7160e01b5f52603260045260245ffd5b815181526020808301516001600160a01b0316908201526040808301516001600160801b0390811691830191909152606092830151169181019190915260800190565b5f5f60408385031215612240575f5ffd5b505080516020909101519092909150565b6001600160801b0382811682821603908111156106225761062261205e565b5f600182016122815761228161205e565b5060010190565b6001600160a01b03938416815291909216602082015262ffffff909116604082015260600190565b5f602082840312156122c0575f5ffd5b8151611d5e81611d6556fe77e60b99a50d27fb027f6912a507d956105b4148adab27a86d235c8bcca8fa2fa2646970667358221220131a7e9a083e975395d4a2e24c62cc237a3838468c159abace513bb530860e1064736f6c634300081c0033",
  "linkReferences": {},
  "deployedLinkReferences": {}
}