{
  "_format": "hh-sol-artifact-1",
  "contractName": "TokenAllocator",
  "sourceName": "contracts/allocation/TokenAllocator.sol",
  "abi": [
    {
      "inputs": [
        {
          "internalType": "address",
          "name": "_token",
          "type": "address"
        },
        {
          "internalType": "address",
          "name": "_governance",
          "type": "address"
        }
      ],
      "stateMutability": "nonpayable",
      "type": "constructor"
    },
    {
      "inputs": [],
      "name": "AccessControlBadConfirmation",
      "type": "error"
    },
    {
      "inputs": [
        {
          "internalType": "address",
          "name": "account",
          "type": "address"
        },
        {
          "internalType": "bytes32",
          "name": "neededRole",
          "type": "bytes32"
        }
      ],
      "name": "AccessControlUnauthorizedAccount",
      "type": "error"
    },
    {
      "inputs": [],
      "name": "ReentrancyGuardReentrantCall",
      "type": "error"
    },
    {
      "inputs": [
        {
          "internalType": "address",
          "name": "token",
          "type": "address"
        }
      ],
      "name": "SafeERC20FailedOperation",
      "type": "error"
    },
    {
      "anonymous": false,
      "inputs": [
        {
          "indexed": true,
          "internalType": "enum TokenAllocator.Category",
          "name": "category",
          "type": "uint8"
        },
        {
          "indexed": false,
          "internalType": "uint256",
          "name": "amount",
          "type": "uint256"
        }
      ],
      "name": "PoolFunded",
      "type": "event"
    },
    {
      "anonymous": false,
      "inputs": [
        {
          "indexed": true,
          "internalType": "enum TokenAllocator.Category",
          "name": "category",
          "type": "uint8"
        },
        {
          "indexed": false,
          "internalType": "uint256",
          "name": "limit",
          "type": "uint256"
        }
      ],
      "name": "PoolInitialized",
      "type": "event"
    },
    {
      "anonymous": false,
      "inputs": [
        {
          "indexed": true,
          "internalType": "enum TokenAllocator.Category",
          "name": "category",
          "type": "uint8"
        },
        {
          "indexed": false,
          "internalType": "uint256",
          "name": "oldLimit",
          "type": "uint256"
        },
        {
          "indexed": false,
          "internalType": "uint256",
          "name": "newLimit",
          "type": "uint256"
        }
      ],
      "name": "PoolLimitUpdated",
      "type": "event"
    },
    {
      "anonymous": false,
      "inputs": [
        {
          "indexed": true,
          "internalType": "enum TokenAllocator.Category",
          "name": "category",
          "type": "uint8"
        },
        {
          "indexed": false,
          "internalType": "bool",
          "name": "active",
          "type": "bool"
        }
      ],
      "name": "PoolStatusChanged",
      "type": "event"
    },
    {
      "anonymous": false,
      "inputs": [
        {
          "indexed": true,
          "internalType": "bytes32",
          "name": "role",
          "type": "bytes32"
        },
        {
          "indexed": true,
          "internalType": "bytes32",
          "name": "previousAdminRole",
          "type": "bytes32"
        },
        {
          "indexed": true,
          "internalType": "bytes32",
          "name": "newAdminRole",
          "type": "bytes32"
        }
      ],
      "name": "RoleAdminChanged",
      "type": "event"
    },
    {
      "anonymous": false,
      "inputs": [
        {
          "indexed": true,
          "internalType": "bytes32",
          "name": "role",
          "type": "bytes32"
        },
        {
          "indexed": true,
          "internalType": "address",
          "name": "account",
          "type": "address"
        },
        {
          "indexed": true,
          "internalType": "address",
          "name": "sender",
          "type": "address"
        }
      ],
      "name": "RoleGranted",
      "type": "event"
    },
    {
      "anonymous": false,
      "inputs": [
        {
          "indexed": true,
          "internalType": "bytes32",
          "name": "role",
          "type": "bytes32"
        },
        {
          "indexed": true,
          "internalType": "address",
          "name": "account",
          "type": "address"
        },
        {
          "indexed": true,
          "internalType": "address",
          "name": "sender",
          "type": "address"
        }
      ],
      "name": "RoleRevoked",
      "type": "event"
    },
    {
      "anonymous": false,
      "inputs": [
        {
          "indexed": true,
          "internalType": "enum TokenAllocator.Category",
          "name": "category",
          "type": "uint8"
        },
        {
          "indexed": true,
          "internalType": "address",
          "name": "recipient",
          "type": "address"
        },
        {
          "indexed": false,
          "internalType": "uint256",
          "name": "amount",
          "type": "uint256"
        },
        {
          "indexed": false,
          "internalType": "string",
          "name": "reason",
          "type": "string"
        }
      ],
      "name": "TokensDistributed",
      "type": "event"
    },
    {
      "inputs": [],
      "name": "ALLOCATOR_ROLE",
      "outputs": [
        {
          "internalType": "bytes32",
          "name": "",
          "type": "bytes32"
        }
      ],
      "stateMutability": "view",
      "type": "function"
    },
    {
      "inputs": [],
      "name": "DEFAULT_ADMIN_ROLE",
      "outputs": [
        {
          "internalType": "bytes32",
          "name": "",
          "type": "bytes32"
        }
      ],
      "stateMutability": "view",
      "type": "function"
    },
    {
      "inputs": [],
      "name": "GOVERNANCE_ROLE",
      "outputs": [
        {
          "internalType": "bytes32",
          "name": "",
          "type": "bytes32"
        }
      ],
      "stateMutability": "view",
      "type": "function"
    },
    {
      "inputs": [
        {
          "internalType": "enum TokenAllocator.Category",
          "name": "category",
          "type": "uint8"
        },
        {
          "internalType": "address[]",
          "name": "recipients",
          "type": "address[]"
        },
        {
          "internalType": "uint256[]",
          "name": "amounts",
          "type": "uint256[]"
        },
        {
          "internalType": "string[]",
          "name": "reasons",
          "type": "string[]"
        }
      ],
      "name": "batchDistribute",
      "outputs": [],
      "stateMutability": "nonpayable",
      "type": "function"
    },
    {
      "inputs": [
        {
          "internalType": "enum TokenAllocator.Category",
          "name": "category",
          "type": "uint8"
        },
        {
          "internalType": "address",
          "name": "recipient",
          "type": "address"
        },
        {
          "internalType": "uint256",
          "name": "amount",
          "type": "uint256"
        },
        {
          "internalType": "string",
          "name": "reason",
          "type": "string"
        }
      ],
      "name": "distribute",
      "outputs": [],
      "stateMutability": "nonpayable",
      "type": "function"
    },
    {
      "inputs": [
        {
          "internalType": "enum TokenAllocator.Category",
          "name": "category",
          "type": "uint8"
        },
        {
          "internalType": "uint256",
          "name": "amount",
          "type": "uint256"
        }
      ],
      "name": "fundPool",
      "outputs": [],
      "stateMutability": "nonpayable",
      "type": "function"
    },
    {
      "inputs": [
        {
          "internalType": "enum TokenAllocator.Category",
          "name": "category",
          "type": "uint8"
        }
      ],
      "name": "getPoolInfo",
      "outputs": [
        {
          "internalType": "uint256",
          "name": "allocated",
          "type": "uint256"
        },
        {
          "internalType": "uint256",
          "name": "distributed",
          "type": "uint256"
        },
        {
          "internalType": "uint256",
          "name": "available",
          "type": "uint256"
        },
        {
          "internalType": "uint256",
          "name": "limit",
          "type": "uint256"
        },
        {
          "internalType": "bool",
          "name": "active",
          "type": "bool"
        }
      ],
      "stateMutability": "view",
      "type": "function"
    },
    {
      "inputs": [
        {
          "internalType": "enum TokenAllocator.Category",
          "name": "category",
          "type": "uint8"
        },
        {
          "internalType": "address",
          "name": "recipient",
          "type": "address"
        }
      ],
      "name": "getRecipientTotal",
      "outputs": [
        {
          "internalType": "uint256",
          "name": "",
          "type": "uint256"
        }
      ],
      "stateMutability": "view",
      "type": "function"
    },
    {
      "inputs": [
        {
          "internalType": "bytes32",
          "name": "role",
          "type": "bytes32"
        }
      ],
      "name": "getRoleAdmin",
      "outputs": [
        {
          "internalType": "bytes32",
          "name": "",
          "type": "bytes32"
        }
      ],
      "stateMutability": "view",
      "type": "function"
    },
    {
      "inputs": [
        {
          "internalType": "bytes32",
          "name": "role",
          "type": "bytes32"
        },
        {
          "internalType": "address",
          "name": "account",
          "type": "address"
        }
      ],
      "name": "grantRole",
      "outputs": [],
      "stateMutability": "nonpayable",
      "type": "function"
    },
    {
      "inputs": [
        {
          "internalType": "bytes32",
          "name": "role",
          "type": "bytes32"
        },
        {
          "internalType": "address",
          "name": "account",
          "type": "address"
        }
      ],
      "name": "hasRole",
      "outputs": [
        {
          "internalType": "bool",
          "name": "",
          "type": "bool"
        }
      ],
      "stateMutability": "view",
      "type": "function"
    },
    {
      "inputs": [
        {
          "internalType": "enum TokenAllocator.Category",
          "name": "category",
          "type": "uint8"
        },
        {
          "internalType": "uint256",
          "name": "limit",
          "type": "uint256"
        }
      ],
      "name": "initializePool",
      "outputs": [],
      "stateMutability": "nonpayable",
      "type": "function"
    },
    {
      "inputs": [
        {
          "internalType": "enum TokenAllocator.Category",
          "name": "",
          "type": "uint8"
        }
      ],
      "name": "pools",
      "outputs": [
        {
          "internalType": "uint256",
          "name": "allocated",
          "type": "uint256"
        },
        {
          "internalType": "uint256",
          "name": "distributed",
          "type": "uint256"
        },
        {
          "internalType": "uint256",
          "name": "limit",
          "type": "uint256"
        },
        {
          "internalType": "bool",
          "name": "active",
          "type": "bool"
        }
      ],
      "stateMutability": "view",
      "type": "function"
    },
    {
      "inputs": [
        {
          "internalType": "enum TokenAllocator.Category",
          "name": "",
          "type": "uint8"
        },
        {
          "internalType": "address",
          "name": "",
          "type": "address"
        }
      ],
      "name": "recipientDistributions",
      "outputs": [
        {
          "internalType": "uint256",
          "name": "",
          "type": "uint256"
        }
      ],
      "stateMutability": "view",
      "type": "function"
    },
    {
      "inputs": [
        {
          "internalType": "bytes32",
          "name": "role",
          "type": "bytes32"
        },
        {
          "internalType": "address",
          "name": "callerConfirmation",
          "type": "address"
        }
      ],
      "name": "renounceRole",
      "outputs": [],
      "stateMutability": "nonpayable",
      "type": "function"
    },
    {
      "inputs": [
        {
          "internalType": "bytes32",
          "name": "role",
          "type": "bytes32"
        },
        {
          "internalType": "address",
          "name": "account",
          "type": "address"
        }
      ],
      "name": "revokeRole",
      "outputs": [],
      "stateMutability": "nonpayable",
      "type": "function"
    },
    {
      "inputs": [
        {
          "internalType": "enum TokenAllocator.Category",
          "name": "category",
          "type": "uint8"
        },
        {
          "internalType": "bool",
          "name": "active",
          "type": "bool"
        }
      ],
      "name": "setPoolStatus",
      "outputs": [],
      "stateMutability": "nonpayable",
      "type": "function"
    },
    {
      "inputs": [
        {
          "internalType": "bytes4",
          "name": "interfaceId",
          "type": "bytes4"
        }
      ],
      "name": "supportsInterface",
      "outputs": [
        {
          "internalType": "bool",
          "name": "",
          "type": "bool"
        }
      ],
      "stateMutability": "view",
      "type": "function"
    },
    {
      "inputs": [],
      "name": "token",
      "outputs": [
        {
          "internalType": "contract IERC20",
          "name": "",
          "type": "address"
        }
      ],
      "stateMutability": "view",
      "type": "function"
    },
    {
      "inputs": [
        {
          "internalType": "enum TokenAllocator.Category",
          "name": "category",
          "type": "uint8"
        },
        {
          "internalType": "uint256",
          "name": "newLimit",
          "type": "uint256"
        }
      ],
      "name": "updatePoolLimit",
      "outputs": [],
      "stateMutability": "nonpayable",
      "type": "function"
    }
  ],
  "bytecode": "0x60a060405234801561000f575f5ffd5b506040516119c63803806119c683398101604081905261002e9161021c565b600180556001600160a01b03821661008d5760405162461bcd60e51b815260206004820152601560248201527f496e76616c696420746f6b656e2061646472657373000000000000000000000060448201526064015b60405180910390fd5b6001600160a01b0381166100e35760405162461bcd60e51b815260206004820152601a60248201527f496e76616c696420676f7665726e616e636520616464726573730000000000006044820152606401610084565b6001600160a01b0382166080526100fa5f82610158565b506101257f71840dc4906352362b0cdaf79870196c8e42acafade72d5d5a6d59291253ceb182610158565b506101507f68bf109b95a5c15fb2bb99041323c27d15f8675e11bf7420a1cd6ad64c394f4682610158565b50505061024d565b5f828152602081815260408083206001600160a01b038516845290915281205460ff166101f8575f838152602081815260408083206001600160a01b03861684529091529020805460ff191660011790556101b03390565b6001600160a01b0316826001600160a01b0316847f2f8788117e7eff1d82e926ec794901d17c78024a50270940304540a733656f0d60405160405180910390a45060016101fb565b505f5b92915050565b80516001600160a01b0381168114610217575f5ffd5b919050565b5f5f6040838503121561022d575f5ffd5b61023683610201565b915061024460208401610201565b90509250929050565b60805161174c61027a5f395f818161034c015281816105f901528181610add0152610e3e015261174c5ff3fe608060405234801561000f575f5ffd5b5060043610610127575f3560e01c8063af2334d2116100a9578063ebdaae4a1161006e578063ebdaae4a14610288578063f16ceb80146102c5578063f36c8f5c146102d8578063fb87a635146102ec578063fc0c546a14610347575f5ffd5b8063af2334d214610228578063bf18c30a1461023b578063bf7fc7351461024e578063c81cbaa114610261578063d547741f14610275575f5ffd5b8063538dff80116100ef578063538dff80146101d557806373785268146101e857806391d14854146101fb578063a217fddf1461020e578063aa90440314610215575f5ffd5b806301ffc9a71461012b5780631ec893f514610153578063248a9ca31461018b5780632f2ff15d146101ad57806336568abe146101c2575b5f5ffd5b61013e61013936600461131d565b610386565b60405190151581526020015b60405180910390f35b61017d610161366004611374565b600360209081525f928352604080842090915290825290205481565b60405190815260200161014a565b61017d6101993660046113a5565b5f9081526020819052604090206001015490565b6101c06101bb3660046113bc565b6103bc565b005b6101c06101d03660046113bc565b6103e6565b6101c06101e33660046113dd565b61041e565b6101c06101f6366004611472565b610689565b61013e6102093660046113bc565b610735565b61017d5f81565b61017d610223366004611374565b61075d565b6101c06102363660046114f3565b6107bb565b6101c06102493660046115a2565b610be9565b6101c061025c3660046115a2565b610d2d565b61017d5f5160206116f75f395f51905f5281565b6101c06102833660046113bc565b610eb1565b61029b6102963660046115ca565b610ed5565b6040805195865260208601949094529284019190915260608301521515608082015260a00161014a565b6101c06102d33660046115a2565b610f44565b61017d5f5160206116d75f395f51905f5281565b6103256102fa3660046115ca565b600260208190525f918252604090912080546001820154928201546003909201549092919060ff1684565b604080519485526020850193909352918301521515606082015260800161014a565b61036e7f000000000000000000000000000000000000000000000000000000000000000081565b6040516001600160a01b03909116815260200161014a565b5f6001600160e01b03198216637965db0b60e01b14806103b657506301ffc9a760e01b6001600160e01b03198316145b92915050565b5f828152602081905260409020600101546103d6816110ad565b6103e083836110ba565b50505050565b6001600160a01b038116331461040f5760405163334bd91960e11b815260040160405180910390fd5b6104198282611149565b505050565b5f5160206116f75f395f51905f52610435816110ad565b61043d6111b2565b6001600160a01b03851661048c5760405162461bcd60e51b8152602060048201526011602482015270125b9d985b1a59081c9958da5c1a595b9d607a1b60448201526064015b60405180910390fd5b5f60025f8860048111156104a2576104a26115e3565b60048111156104b3576104b36115e3565b815260208101919091526040015f20600381015490915060ff1661050e5760405162461bcd60e51b8152602060048201526012602482015271506f6f6c206973206e6f742061637469766560701b6044820152606401610483565b6001810154815486916105209161160b565b101561056a5760405162461bcd60e51b8152602060048201526019602482015278496e73756666696369656e7420706f6f6c2062616c616e636560381b6044820152606401610483565b84816001015f82825461057d919061161e565b9091555085905060035f896004811115610599576105996115e3565b60048111156105aa576105aa6115e3565b81526020019081526020015f205f886001600160a01b03166001600160a01b031681526020019081526020015f205f8282546105e6919061161e565b9091555061062090506001600160a01b037f00000000000000000000000000000000000000000000000000000000000000001687876111dc565b856001600160a01b031687600481111561063c5761063c6115e3565b7f16413d6e46b281cce31b6141d0047c7bcb4c3fb7ece774004f1cbdbc1a7ee0d087878760405161066f93929190611631565b60405180910390a35061068160018055565b505050505050565b5f5160206116d75f395f51905f526106a0816110ad565b8160025f8560048111156106b6576106b66115e3565b60048111156106c7576106c76115e3565b815260208101919091526040015f20600301805460ff19169115159190911790558260048111156106fa576106fa6115e3565b60405183151581527faf7bb2f16df3983ae0c54e8f3296cc58faa68af9b8789a7480c1ce384f4774f2906020015b60405180910390a2505050565b5f918252602082815260408084206001600160a01b0393909316845291905290205460ff1690565b5f60035f846004811115610773576107736115e3565b6004811115610784576107846115e3565b81526020019081526020015f205f836001600160a01b03166001600160a01b031681526020019081526020015f2054905092915050565b5f5160206116f75f395f51905f526107d2816110ad565b6107da6111b2565b85841480156107e857508382145b61082c5760405162461bcd60e51b8152602060048201526015602482015274082e4e4c2f240d8cadccee8d040dad2e6dac2e8c6d605b1b6044820152606401610483565b5f60025f8a6004811115610842576108426115e3565b6004811115610853576108536115e3565b815260208101919091526040015f20600381015490915060ff166108ae5760405162461bcd60e51b8152602060048201526012602482015271506f6f6c206973206e6f742061637469766560701b6044820152606401610483565b5f805b868110156108e7578787828181106108cb576108cb611666565b90506020020135826108dd919061161e565b91506001016108b1565b506001820154825482916108fa9161160b565b10156109445760405162461bcd60e51b8152602060048201526019602482015278496e73756666696369656e7420706f6f6c2062616c616e636560381b6044820152606401610483565b5f5b88811015610bd3575f8a8a8381811061096157610961611666565b9050602002016020810190610976919061167a565b6001600160a01b0316036109c05760405162461bcd60e51b8152602060048201526011602482015270125b9d985b1a59081c9958da5c1a595b9d607a1b6044820152606401610483565b8787828181106109d2576109d2611666565b90506020020135836001015f8282546109eb919061161e565b909155508890508782818110610a0357610a03611666565b9050602002013560035f8d6004811115610a1f57610a1f6115e3565b6004811115610a3057610a306115e3565b81526020019081526020015f205f8c8c85818110610a5057610a50611666565b9050602002016020810190610a65919061167a565b6001600160a01b03166001600160a01b031681526020019081526020015f205f828254610a92919061161e565b90915550610b1490508a8a83818110610aad57610aad611666565b9050602002016020810190610ac2919061167a565b898984818110610ad457610ad4611666565b905060200201357f00000000000000000000000000000000000000000000000000000000000000006001600160a01b03166111dc9092919063ffffffff16565b898982818110610b2657610b26611666565b9050602002016020810190610b3b919061167a565b6001600160a01b03168b6004811115610b5657610b566115e3565b7f16413d6e46b281cce31b6141d0047c7bcb4c3fb7ece774004f1cbdbc1a7ee0d08a8a85818110610b8957610b89611666565b90506020020135898986818110610ba257610ba2611666565b9050602002810190610bb49190611693565b604051610bc393929190611631565b60405180910390a3600101610946565b505050610bdf60018055565b5050505050505050565b5f5160206116d75f395f51905f52610c00816110ad565b5f60025f856004811115610c1657610c166115e3565b6004811115610c2757610c276115e3565b81526020019081526020015f2090505f816002015411610c805760405162461bcd60e51b8152602060048201526014602482015273141bdbdb081b9bdd081a5b9a5d1a585b1a5e995960621b6044820152606401610483565b8054831015610cd15760405162461bcd60e51b815260206004820181905260248201527f4e6577206c696d69742062656c6f7720616c6c6f636174656420616d6f756e746044820152606401610483565b60028101805490849055846004811115610ced57610ced6115e3565b60408051838152602081018790527f54c1a22a8343e46e666273a18da12b32fc19f6fdbd594360b77e5b5dec189665910160405180910390a25050505050565b5f5160206116f75f395f51905f52610d44816110ad565b5f60025f856004811115610d5a57610d5a6115e3565b6004811115610d6b57610d6b6115e3565b81526020019081526020015f2090505f816002015411610dc45760405162461bcd60e51b8152602060048201526014602482015273141bdbdb081b9bdd081a5b9a5d1a585b1a5e995960621b6044820152606401610483565b60028101548154610dd690859061161e565b1115610e195760405162461bcd60e51b8152602060048201526012602482015271115e18d959591cc81c1bdbdb081b1a5b5a5d60721b6044820152606401610483565b82815f015f828254610e2b919061161e565b90915550610e6690506001600160a01b037f00000000000000000000000000000000000000000000000000000000000000001633308661123b565b836004811115610e7857610e786115e3565b6040518481527f9b152ddc797c68ff43a1dac95e028ac251a8a26afbd8ebf9d2beafe06f1959779060200160405180910390a250505050565b5f82815260208190526040902060010154610ecb816110ad565b6103e08383611149565b5f5f5f5f5f5f60025f886004811115610ef057610ef06115e3565b6004811115610f0157610f016115e3565b815260208101919091526040015f208054600182015491925090610f25818361160b565b6002840154600390940154929a919950975091955060ff169350915050565b5f5160206116d75f395f51905f52610f5b816110ad565b60025f846004811115610f7057610f706115e3565b6004811115610f8157610f816115e3565b81526020019081526020015f20600201545f14610fe05760405162461bcd60e51b815260206004820152601860248201527f506f6f6c20616c726561647920696e697469616c697a656400000000000000006044820152606401610483565b60405180608001604052805f81526020015f81526020018381526020016001151581525060025f856004811115611019576110196115e3565b600481111561102a5761102a6115e3565b815260208082019290925260409081015f208351815591830151600183015582015160028201556060909101516003909101805460ff191691151591909117905582600481111561107d5761107d6115e3565b6040518381527f363c18a9847b0344a66cc503fef67c0cf652f53b58cd4d47b82b9e52ddd56d9290602001610728565b6110b78133611274565b50565b5f6110c58383610735565b611142575f838152602081815260408083206001600160a01b03861684529091529020805460ff191660011790556110fa3390565b6001600160a01b0316826001600160a01b0316847f2f8788117e7eff1d82e926ec794901d17c78024a50270940304540a733656f0d60405160405180910390a45060016103b6565b505f6103b6565b5f6111548383610735565b15611142575f838152602081815260408083206001600160a01b0386168085529252808320805460ff1916905551339286917ff6391f5c32d9c69d2a47ea670b442974b53935d1edc7fd64eb21e047a839171b9190a45060016103b6565b6002600154036111d557604051633ee5aeb560e01b815260040160405180910390fd5b6002600155565b6040516001600160a01b0383811660248301526044820183905261041991859182169063a9059cbb906064015b604051602081830303815290604052915060e01b6020820180516001600160e01b0383818316178352505050506112b1565b6040516001600160a01b0384811660248301528381166044830152606482018390526103e09186918216906323b872dd90608401611209565b61127e8282610735565b6112ad5760405163e2517d3f60e01b81526001600160a01b038216600482015260248101839052604401610483565b5050565b5f5f60205f8451602086015f885af1806112d0576040513d5f823e3d81fd5b50505f513d915081156112e75780600114156112f4565b6001600160a01b0384163b155b156103e057604051635274afe760e01b81526001600160a01b0385166004820152602401610483565b5f6020828403121561132d575f5ffd5b81356001600160e01b031981168114611344575f5ffd5b9392505050565b803560058110611359575f5ffd5b919050565b80356001600160a01b0381168114611359575f5ffd5b5f5f60408385031215611385575f5ffd5b61138e8361134b565b915061139c6020840161135e565b90509250929050565b5f602082840312156113b5575f5ffd5b5035919050565b5f5f604083850312156113cd575f5ffd5b8235915061139c6020840161135e565b5f5f5f5f5f608086880312156113f1575f5ffd5b6113fa8661134b565b94506114086020870161135e565b935060408601359250606086013567ffffffffffffffff81111561142a575f5ffd5b8601601f8101881361143a575f5ffd5b803567ffffffffffffffff811115611450575f5ffd5b886020828401011115611461575f5ffd5b959894975092955050506020019190565b5f5f60408385031215611483575f5ffd5b61148c8361134b565b9150602083013580151581146114a0575f5ffd5b809150509250929050565b5f5f83601f8401126114bb575f5ffd5b50813567ffffffffffffffff8111156114d2575f5ffd5b6020830191508360208260051b85010111156114ec575f5ffd5b9250929050565b5f5f5f5f5f5f5f6080888a031215611509575f5ffd5b6115128861134b565b9650602088013567ffffffffffffffff81111561152d575f5ffd5b6115398a828b016114ab565b909750955050604088013567ffffffffffffffff811115611558575f5ffd5b6115648a828b016114ab565b909550935050606088013567ffffffffffffffff811115611583575f5ffd5b61158f8a828b016114ab565b989b979a50959850939692959293505050565b5f5f604083850312156115b3575f5ffd5b6115bc8361134b565b946020939093013593505050565b5f602082840312156115da575f5ffd5b6113448261134b565b634e487b7160e01b5f52602160045260245ffd5b634e487b7160e01b5f52601160045260245ffd5b818103818111156103b6576103b66115f7565b808201808211156103b6576103b66115f7565b83815260406020820152816040820152818360608301375f818301606090810191909152601f909201601f1916010192915050565b634e487b7160e01b5f52603260045260245ffd5b5f6020828403121561168a575f5ffd5b6113448261135e565b5f5f8335601e198436030181126116a8575f5ffd5b83018035915067ffffffffffffffff8211156116c2575f5ffd5b6020019150368190038213156114ec575f5ffdfe71840dc4906352362b0cdaf79870196c8e42acafade72d5d5a6d59291253ceb168bf109b95a5c15fb2bb99041323c27d15f8675e11bf7420a1cd6ad64c394f46a26469706673582212202b5248637ab9e466dad456eb94c540394e045c4d6f46a0c4a72780a4c91d822b64736f6c634300081c0033",
  "linkReferences": {},
  "deployedLinkReferences": {}
}