{
  "_format": "hh-sol-artifact-1",
  "contractName": "TrainingRewards",
  "sourceName": "contracts/allocation/TrainingRewards.sol",
  "abi": [
    {
      "inputs": [
        {
          "internalType": "address",
          "name": "_token",
          "type": "address"
        },
        {
          "internalType": "address",
          "name": "_governance",
          "type": "address"
        }
      ],
      "stateMutability": "nonpayable",
      "type": "constructor"
    },
    {
      "inputs": [],
      "name": "AccessControlBadConfirmation",
      "type": "error"
    },
    {
      "inputs": [
        {
          "internalType": "address",
          "name": "account",
          "type": "address"
        },
        {
          "internalType": "bytes32",
          "name": "neededRole",
          "type": "bytes32"
        }
      ],
      "name": "AccessControlUnauthorizedAccount",
      "type": "error"
    },
    {
      "inputs": [],
      "name": "ECDSAInvalidSignature",
      "type": "error"
    },
    {
      "inputs": [
        {
          "internalType": "uint256",
          "name": "length",
          "type": "uint256"
        }
      ],
      "name": "ECDSAInvalidSignatureLength",
      "type": "error"
    },
    {
      "inputs": [
        {
          "internalType": "bytes32",
          "name": "s",
          "type": "bytes32"
        }
      ],
      "name": "ECDSAInvalidSignatureS",
      "type": "error"
    },
    {
      "inputs": [],
      "name": "ReentrancyGuardReentrantCall",
      "type": "error"
    },
    {
      "inputs": [
        {
          "internalType": "address",
          "name": "token",
          "type": "address"
        }
      ],
      "name": "SafeERC20FailedOperation",
      "type": "error"
    },
    {
      "anonymous": false,
      "inputs": [
        {
          "indexed": true,
          "internalType": "uint256",
          "name": "courseId",
          "type": "uint256"
        },
        {
          "indexed": true,
          "internalType": "address",
          "name": "user",
          "type": "address"
        },
        {
          "indexed": false,
          "internalType": "uint256",
          "name": "reward",
          "type": "uint256"
        },
        {
          "indexed": false,
          "internalType": "uint256",
          "name": "timestamp",
          "type": "uint256"
        }
      ],
      "name": "CourseCompleted",
      "type": "event"
    },
    {
      "anonymous": false,
      "inputs": [
        {
          "indexed": true,
          "internalType": "uint256",
          "name": "courseId",
          "type": "uint256"
        },
        {
          "indexed": false,
          "internalType": "string",
          "name": "name",
          "type": "string"
        },
        {
          "indexed": false,
          "internalType": "uint256",
          "name": "rewardAmount",
          "type": "uint256"
        }
      ],
      "name": "CourseCreated",
      "type": "event"
    },
    {
      "anonymous": false,
      "inputs": [
        {
          "indexed": true,
          "internalType": "uint256",
          "name": "courseId",
          "type": "uint256"
        },
        {
          "indexed": false,
          "internalType": "uint256",
          "name": "rewardAmount",
          "type": "uint256"
        },
        {
          "indexed": false,
          "internalType": "bool",
          "name": "active",
          "type": "bool"
        }
      ],
      "name": "CourseUpdated",
      "type": "event"
    },
    {
      "anonymous": false,
      "inputs": [
        {
          "indexed": true,
          "internalType": "address",
          "name": "user",
          "type": "address"
        },
        {
          "indexed": false,
          "internalType": "uint256",
          "name": "amount",
          "type": "uint256"
        }
      ],
      "name": "RewardsClaimed",
      "type": "event"
    },
    {
      "anonymous": false,
      "inputs": [
        {
          "indexed": true,
          "internalType": "bytes32",
          "name": "role",
          "type": "bytes32"
        },
        {
          "indexed": true,
          "internalType": "bytes32",
          "name": "previousAdminRole",
          "type": "bytes32"
        },
        {
          "indexed": true,
          "internalType": "bytes32",
          "name": "newAdminRole",
          "type": "bytes32"
        }
      ],
      "name": "RoleAdminChanged",
      "type": "event"
    },
    {
      "anonymous": false,
      "inputs": [
        {
          "indexed": true,
          "internalType": "bytes32",
          "name": "role",
          "type": "bytes32"
        },
        {
          "indexed": true,
          "internalType": "address",
          "name": "account",
          "type": "address"
        },
        {
          "indexed": true,
          "internalType": "address",
          "name": "sender",
          "type": "address"
        }
      ],
      "name": "RoleGranted",
      "type": "event"
    },
    {
      "anonymous": false,
      "inputs": [
        {
          "indexed": true,
          "internalType": "bytes32",
          "name": "role",
          "type": "bytes32"
        },
        {
          "indexed": true,
          "internalType": "address",
          "name": "account",
          "type": "address"
        },
        {
          "indexed": true,
          "internalType": "address",
          "name": "sender",
          "type": "address"
        }
      ],
      "name": "RoleRevoked",
      "type": "event"
    },
    {
      "inputs": [],
      "name": "DEFAULT_ADMIN_ROLE",
      "outputs": [
        {
          "internalType": "bytes32",
          "name": "",
          "type": "bytes32"
        }
      ],
      "stateMutability": "view",
      "type": "function"
    },
    {
      "inputs": [],
      "name": "INSTRUCTOR_ROLE",
      "outputs": [
        {
          "internalType": "bytes32",
          "name": "",
          "type": "bytes32"
        }
      ],
      "stateMutability": "view",
      "type": "function"
    },
    {
      "inputs": [],
      "name": "MANAGER_ROLE",
      "outputs": [
        {
          "internalType": "bytes32",
          "name": "",
          "type": "bytes32"
        }
      ],
      "stateMutability": "view",
      "type": "function"
    },
    {
      "inputs": [
        {
          "internalType": "address[]",
          "name": "users",
          "type": "address[]"
        },
        {
          "internalType": "uint256",
          "name": "courseId",
          "type": "uint256"
        }
      ],
      "name": "batchMarkCompletions",
      "outputs": [],
      "stateMutability": "nonpayable",
      "type": "function"
    },
    {
      "inputs": [
        {
          "internalType": "uint256",
          "name": "courseId",
          "type": "uint256"
        },
        {
          "internalType": "bytes",
          "name": "signature",
          "type": "bytes"
        },
        {
          "internalType": "uint256",
          "name": "nonce",
          "type": "uint256"
        }
      ],
      "name": "completeCourse",
      "outputs": [],
      "stateMutability": "nonpayable",
      "type": "function"
    },
    {
      "inputs": [],
      "name": "courseCount",
      "outputs": [
        {
          "internalType": "uint256",
          "name": "",
          "type": "uint256"
        }
      ],
      "stateMutability": "view",
      "type": "function"
    },
    {
      "inputs": [
        {
          "internalType": "uint256",
          "name": "",
          "type": "uint256"
        }
      ],
      "name": "courses",
      "outputs": [
        {
          "internalType": "string",
          "name": "name",
          "type": "string"
        },
        {
          "internalType": "uint256",
          "name": "rewardAmount",
          "type": "uint256"
        },
        {
          "internalType": "uint256",
          "name": "maxCompletions",
          "type": "uint256"
        },
        {
          "internalType": "uint256",
          "name": "completions",
          "type": "uint256"
        },
        {
          "internalType": "bool",
          "name": "active",
          "type": "bool"
        },
        {
          "internalType": "uint256",
          "name": "createdAt",
          "type": "uint256"
        }
      ],
      "stateMutability": "view",
      "type": "function"
    },
    {
      "inputs": [
        {
          "internalType": "string",
          "name": "name",
          "type": "string"
        },
        {
          "internalType": "uint256",
          "name": "rewardAmount",
          "type": "uint256"
        },
        {
          "internalType": "uint256",
          "name": "maxCompletions",
          "type": "uint256"
        }
      ],
      "name": "createCourse",
      "outputs": [
        {
          "internalType": "uint256",
          "name": "courseId",
          "type": "uint256"
        }
      ],
      "stateMutability": "nonpayable",
      "type": "function"
    },
    {
      "inputs": [],
      "name": "getContractBalance",
      "outputs": [
        {
          "internalType": "uint256",
          "name": "",
          "type": "uint256"
        }
      ],
      "stateMutability": "view",
      "type": "function"
    },
    {
      "inputs": [
        {
          "internalType": "uint256",
          "name": "courseId",
          "type": "uint256"
        }
      ],
      "name": "getCourse",
      "outputs": [
        {
          "internalType": "string",
          "name": "name",
          "type": "string"
        },
        {
          "internalType": "uint256",
          "name": "rewardAmount",
          "type": "uint256"
        },
        {
          "internalType": "uint256",
          "name": "maxCompletions",
          "type": "uint256"
        },
        {
          "internalType": "uint256",
          "name": "completions",
          "type": "uint256"
        },
        {
          "internalType": "bool",
          "name": "active",
          "type": "bool"
        },
        {
          "internalType": "uint256",
          "name": "createdAt",
          "type": "uint256"
        }
      ],
      "stateMutability": "view",
      "type": "function"
    },
    {
      "inputs": [
        {
          "internalType": "bytes32",
          "name": "role",
          "type": "bytes32"
        }
      ],
      "name": "getRoleAdmin",
      "outputs": [
        {
          "internalType": "bytes32",
          "name": "",
          "type": "bytes32"
        }
      ],
      "stateMutability": "view",
      "type": "function"
    },
    {
      "inputs": [
        {
          "internalType": "address",
          "name": "user",
          "type": "address"
        }
      ],
      "name": "getUserCompletionCount",
      "outputs": [
        {
          "internalType": "uint256",
          "name": "",
          "type": "uint256"
        }
      ],
      "stateMutability": "view",
      "type": "function"
    },
    {
      "inputs": [
        {
          "internalType": "address",
          "name": "user",
          "type": "address"
        }
      ],
      "name": "getUserCompletions",
      "outputs": [
        {
          "components": [
            {
              "internalType": "uint256",
              "name": "courseId",
              "type": "uint256"
            },
            {
              "internalType": "uint256",
              "name": "timestamp",
              "type": "uint256"
            },
            {
              "internalType": "uint256",
              "name": "reward",
              "type": "uint256"
            }
          ],
          "internalType": "struct TrainingRewards.Completion[]",
          "name": "",
          "type": "tuple[]"
        }
      ],
      "stateMutability": "view",
      "type": "function"
    },
    {
      "inputs": [
        {
          "internalType": "bytes32",
          "name": "role",
          "type": "bytes32"
        },
        {
          "internalType": "address",
          "name": "account",
          "type": "address"
        }
      ],
      "name": "grantRole",
      "outputs": [],
      "stateMutability": "nonpayable",
      "type": "function"
    },
    {
      "inputs": [
        {
          "internalType": "address",
          "name": "",
          "type": "address"
        },
        {
          "internalType": "uint256",
          "name": "",
          "type": "uint256"
        }
      ],
      "name": "hasCompleted",
      "outputs": [
        {
          "internalType": "bool",
          "name": "",
          "type": "bool"
        }
      ],
      "stateMutability": "view",
      "type": "function"
    },
    {
      "inputs": [
        {
          "internalType": "bytes32",
          "name": "role",
          "type": "bytes32"
        },
        {
          "internalType": "address",
          "name": "account",
          "type": "address"
        }
      ],
      "name": "hasRole",
      "outputs": [
        {
          "internalType": "bool",
          "name": "",
          "type": "bool"
        }
      ],
      "stateMutability": "view",
      "type": "function"
    },
    {
      "inputs": [
        {
          "internalType": "address",
          "name": "user",
          "type": "address"
        },
        {
          "internalType": "uint256",
          "name": "courseId",
          "type": "uint256"
        }
      ],
      "name": "hasUserCompletedCourse",
      "outputs": [
        {
          "internalType": "bool",
          "name": "",
          "type": "bool"
        }
      ],
      "stateMutability": "view",
      "type": "function"
    },
    {
      "inputs": [
        {
          "internalType": "address",
          "name": "user",
          "type": "address"
        },
        {
          "internalType": "uint256",
          "name": "courseId",
          "type": "uint256"
        }
      ],
      "name": "markCompletion",
      "outputs": [],
      "stateMutability": "nonpayable",
      "type": "function"
    },
    {
      "inputs": [
        {
          "internalType": "bytes32",
          "name": "role",
          "type": "bytes32"
        },
        {
          "internalType": "address",
          "name": "callerConfirmation",
          "type": "address"
        }
      ],
      "name": "renounceRole",
      "outputs": [],
      "stateMutability": "nonpayable",
      "type": "function"
    },
    {
      "inputs": [
        {
          "internalType": "bytes32",
          "name": "role",
          "type": "bytes32"
        },
        {
          "internalType": "address",
          "name": "account",
          "type": "address"
        }
      ],
      "name": "revokeRole",
      "outputs": [],
      "stateMutability": "nonpayable",
      "type": "function"
    },
    {
      "inputs": [
        {
          "internalType": "bytes4",
          "name": "interfaceId",
          "type": "bytes4"
        }
      ],
      "name": "supportsInterface",
      "outputs": [
        {
          "internalType": "bool",
          "name": "",
          "type": "bool"
        }
      ],
      "stateMutability": "view",
      "type": "function"
    },
    {
      "inputs": [],
      "name": "token",
      "outputs": [
        {
          "internalType": "contract IERC20",
          "name": "",
          "type": "address"
        }
      ],
      "stateMutability": "view",
      "type": "function"
    },
    {
      "inputs": [],
      "name": "totalCompletions",
      "outputs": [
        {
          "internalType": "uint256",
          "name": "",
          "type": "uint256"
        }
      ],
      "stateMutability": "view",
      "type": "function"
    },
    {
      "inputs": [],
      "name": "totalRewardsDistributed",
      "outputs": [
        {
          "internalType": "uint256",
          "name": "",
          "type": "uint256"
        }
      ],
      "stateMutability": "view",
      "type": "function"
    },
    {
      "inputs": [
        {
          "internalType": "address",
          "name": "",
          "type": "address"
        }
      ],
      "name": "totalRewardsEarned",
      "outputs": [
        {
          "internalType": "uint256",
          "name": "",
          "type": "uint256"
        }
      ],
      "stateMutability": "view",
      "type": "function"
    },
    {
      "inputs": [
        {
          "internalType": "uint256",
          "name": "courseId",
          "type": "uint256"
        },
        {
          "internalType": "uint256",
          "name": "rewardAmount",
          "type": "uint256"
        },
        {
          "internalType": "uint256",
          "name": "maxCompletions",
          "type": "uint256"
        },
        {
          "internalType": "bool",
          "name": "active",
          "type": "bool"
        }
      ],
      "name": "updateCourse",
      "outputs": [],
      "stateMutability": "nonpayable",
      "type": "function"
    },
    {
      "inputs": [
        {
          "internalType": "bytes32",
          "name": "",
          "type": "bytes32"
        }
      ],
      "name": "usedSignatures",
      "outputs": [
        {
          "internalType": "bool",
          "name": "",
          "type": "bool"
        }
      ],
      "stateMutability": "view",
      "type": "function"
    },
    {
      "inputs": [
        {
          "internalType": "address",
          "name": "",
          "type": "address"
        },
        {
          "internalType": "uint256",
          "name": "",
          "type": "uint256"
        }
      ],
      "name": "userCompletions",
      "outputs": [
        {
          "internalType": "uint256",
          "name": "courseId",
          "type": "uint256"
        },
        {
          "internalType": "uint256",
          "name": "timestamp",
          "type": "uint256"
        },
        {
          "internalType": "uint256",
          "name": "reward",
          "type": "uint256"
        }
      ],
      "stateMutability": "view",
      "type": "function"
    },
    {
      "inputs": [
        {
          "internalType": "address",
          "name": "to",
          "type": "address"
        },
        {
          "internalType": "uint256",
          "name": "amount",
          "type": "uint256"
        }
      ],
      "name": "withdrawTokens",
      "outputs": [],
      "stateMutability": "nonpayable",
      "type": "function"
    }
  ],
  "bytecode": "0x60a060405234801561000f575f5ffd5b506040516122bf3803806122bf83398101604081905261002e916101f1565b600180556001600160a01b03821661008d5760405162461bcd60e51b815260206004820152601560248201527f496e76616c696420746f6b656e2061646472657373000000000000000000000060448201526064015b60405180910390fd5b6001600160a01b0381166100e35760405162461bcd60e51b815260206004820152601a60248201527f496e76616c696420676f7665726e616e636520616464726573730000000000006044820152606401610084565b6001600160a01b0382166080526100fa5f8261012d565b506101257f241ecf16d79d0f8dbfb92cbc07fe17840425976cf0667f022fe9877caa831b088261012d565b505050610222565b5f828152602081815260408083206001600160a01b038516845290915281205460ff166101cd575f838152602081815260408083206001600160a01b03861684529091529020805460ff191660011790556101853390565b6001600160a01b0316826001600160a01b0316847f2f8788117e7eff1d82e926ec794901d17c78024a50270940304540a733656f0d60405160405180910390a45060016101d0565b505f5b92915050565b80516001600160a01b03811681146101ec575f5ffd5b919050565b5f5f60408385031215610202575f5ffd5b61020b836101d6565b9150610219602084016101d6565b90509250929050565b60805161204d6102725f395f81816104a00152818161057601528181610abf01528181610c1901528181610ca101528181610da401528181610f97015281816114b601526115d3015261204d5ff3fe608060405234801561000f575f5ffd5b50600436106101c6575f3560e01c80638bcf979c116100fe578063e4f24cb01161009e578063f09547b81161006e578063f09547b814610438578063f967f76f14610466578063f978fd6114610479578063fc0c546a1461049b575f5ffd5b8063e4f24cb0146103d6578063ec87621c146103f5578063ee1725461461041c578063eeab54c614610425575f5ffd5b806396f979d2116100d957806396f979d214610396578063a217fddf146103a9578063ae0ec5e4146103b0578063d547741f146103c3575f5ffd5b80638bcf979c1461035c5780638f59cdb61461037057806391d1485414610383575f5ffd5b806336568abe116101695780634bf6006d116101445780634bf6006d146102eb578063551e2d4a14610313578063660551591461034b5780636f9fb98a14610354575f5ffd5b806336568abe146102bc57806338fe3fb3146102cf5780633a8f1076146102e2575f5ffd5b80630d0ba269116101a45780630d0ba2691461022c578063248a9ca31461024c5780632e2467861461027c5780632f2ff15d146102a9575f5ffd5b806301ffc9a7146101ca57806306b091f9146101f25780630b91e28d14610207575b5f5ffd5b6101dd6101d8366004611a65565b6104da565b60405190151581526020015b60405180910390f35b610205610200366004611aae565b610510565b005b61021a610215366004611ad6565b6105a2565b6040516101e996959493929190611aed565b61023f61023a366004611b47565b61069f565b6040516101e99190611b60565b61026e61025a366004611ad6565b5f9081526020819052604090206001015490565b6040519081526020016101e9565b6101dd61028a366004611aae565b600460209081525f928352604080842090915290825290205460ff1681565b6102056102b7366004611bbe565b61072e565b6102056102ca366004611bbe565b610758565b6102056102dd366004611c2d565b61078b565b61026e60095481565b61026e6102f9366004611b47565b6001600160a01b03165f9081526005602052604090205490565b6101dd610321366004611aae565b6001600160a01b03919091165f908152600460209081526040808320938352929052205460ff1690565b61026e60025481565b61026e610c8a565b61026e5f516020611ff85f395f51905f5281565b61020561037e366004611c7c565b610d17565b6101dd610391366004611bbe565b61101a565b61021a6103a4366004611ad6565b611042565b61026e5f81565b61026e6103be366004611cf1565b611100565b6102056103d1366004611bbe565b611244565b61026e6103e4366004611b47565b60066020525f908152604090205481565b61026e7f241ecf16d79d0f8dbfb92cbc07fe17840425976cf0667f022fe9877caa831b0881565b61026e60085481565b610205610433366004611d3e565b611268565b61044b610446366004611aae565b611324565b604080519384526020840192909252908201526060016101e9565b610205610474366004611aae565b611362565b6101dd610487366004611ad6565b60076020525f908152604090205460ff1681565b6104c27f000000000000000000000000000000000000000000000000000000000000000081565b6040516001600160a01b0390911681526020016101e9565b5f6001600160e01b03198216637965db0b60e01b148061050a57506301ffc9a760e01b6001600160e01b03198316145b92915050565b5f61051a8161164a565b6001600160a01b0383166105695760405162461bcd60e51b8152602060048201526011602482015270125b9d985b1a59081c9958da5c1a595b9d607a1b60448201526064015b60405180910390fd5b61059d6001600160a01b037f0000000000000000000000000000000000000000000000000000000000000000168484611657565b505050565b60605f5f5f5f5f60025487106105ca5760405162461bcd60e51b815260040161056090611d80565b5f87815260036020819052604090912060018101546002820154928201546004830154600584015484549495869590939260ff169190869061060b90611daf565b80601f016020809104026020016040519081016040528092919081815260200182805461063790611daf565b80156106825780601f1061065957610100808354040283529160200191610682565b820191905f5260205f20905b81548152906001019060200180831161066557829003601f168201915b505050505095509650965096509650965096505091939550919395565b6001600160a01b0381165f908152600560209081526040808320805482518185028101850190935280835260609492939192909184015b82821015610723578382905f5260205f2090600302016040518060600160405290815f820154815260200160018201548152602001600282015481525050815260200190600101906106d6565b505050509050919050565b5f828152602081905260409020600101546107488161164a565b61075283836116a9565b50505050565b6001600160a01b03811633146107815760405163334bd91960e11b815260040160405180910390fd5b61059d8282611738565b6107936117a1565b60025484106107b45760405162461bcd60e51b815260040161056090611d80565b335f90815260046020908152604080832087845290915290205460ff161561081e5760405162461bcd60e51b815260206004820152601d60248201527f416c726561647920636f6d706c65746564207468697320636f757273650000006044820152606401610560565b5f848152600360205260409020600481015460ff1661084f5760405162461bcd60e51b815260040161056090611de7565b60028101541580610867575080600201548160030154105b6108b35760405162461bcd60e51b815260206004820152601f60248201527f436f7572736520636f6d706c6574696f6e206c696d69742072656163686564006044820152606401610560565b6040516bffffffffffffffffffffffff1933606090811b82166020840152603483018890526054830185905246607484015230901b1660948201525f9060a80160408051601f1981840301815291815281516020928301205f818152600790935291205490915060ff16156109635760405162461bcd60e51b815260206004820152601660248201527514da59db985d1d5c9948185b1c9958591e481d5cd95960521b6044820152606401610560565b7f19457468657265756d205369676e6564204d6573736167653a0a3332000000005f908152601c829052603c812090505f6109d587878080601f0160208091040260200160405190810160405280939291908181526020018383808284375f9201919091525086939250506117cb9050565b90506109ee5f516020611ff85f395f51905f528261101a565b610a3a5760405162461bcd60e51b815260206004820152601c60248201527f496e76616c696420696e7374727563746f72207369676e6174757265000000006044820152606401610560565b5f8381526007602090815260408083208054600160ff199182168117909255338552600484528285208d8652909352908320805490921617905560038501805491610a8483611e29565b909155505060098054905f610a9883611e29565b909155505060018401548015610c40576040516370a0823160e01b815230600482015281907f00000000000000000000000000000000000000000000000000000000000000006001600160a01b0316906370a0823190602401602060405180830381865afa158015610b0c573d5f5f3e3d5ffd5b505050506040513d601f19601f82011682018060405250810190610b309190611e41565b1015610b7e5760405162461bcd60e51b815260206004820152601b60248201527f496e73756666696369656e74207265776172642062616c616e636500000000006044820152606401610560565b335f81815260056020908152604080832081516060810183528e815242818501908152818401888152835460018181018655948852868820935160039091029093019283559051928201929092559051600290910155928252600690529081208054839290610bee908490611e58565b925050819055508060085f828254610c069190611e58565b90915550610c4090506001600160a01b037f0000000000000000000000000000000000000000000000000000000000000000163383611657565b6040805182815242602082015233918b917f59fddc30674b65579cb7353487f994e177536b52f292ac535d8c1079001956b7910160405180910390a3505050505061075260018055565b6040516370a0823160e01b81523060048201525f907f00000000000000000000000000000000000000000000000000000000000000006001600160a01b0316906370a0823190602401602060405180830381865afa158015610cee573d5f5f3e3d5ffd5b505050506040513d601f19601f82011682018060405250810190610d129190611e41565b905090565b5f516020611ff85f395f51905f52610d2e8161164a565b610d366117a1565b6002548210610d575760405162461bcd60e51b815260040161056090611d80565b5f828152600360205260409020600481015460ff16610d885760405162461bcd60e51b815260040161056090611de7565b60018101546040516370a0823160e01b81523060048201525f907f00000000000000000000000000000000000000000000000000000000000000006001600160a01b0316906370a0823190602401602060405180830381865afa158015610df1573d5f5f3e3d5ffd5b505050506040513d601f19601f82011682018060405250810190610e159190611e41565b90505f5b8681101561100d575f888883818110610e3457610e34611e6b565b9050602002016020810190610e499190611b47565b6001600160a01b0381165f9081526004602090815260408083208b845290915290205490915060ff1615610e7d5750611005565b6001600160a01b0381165f9081526004602090815260408083208a84529091528120805460ff1916600117905560038601805491610eba83611e29565b909155505060098054905f610ece83611e29565b91905055505f84118015610ee25750838310155b15610fbe576001600160a01b0381165f81815260056020908152604080832081516060810183528c8152428185019081528184018b8152835460018181018655948852868820935160039091029093019283559051928201929092559051600290910155928252600690529081208054869290610f60908490611e58565b925050819055508360085f828254610f789190611e58565b90915550610f8890508484611e7f565b9250610fbe6001600160a01b037f0000000000000000000000000000000000000000000000000000000000000000168286611657565b604080518581524260208201526001600160a01b0383169189917f59fddc30674b65579cb7353487f994e177536b52f292ac535d8c1079001956b7910160405180910390a3505b600101610e19565b5050505061075260018055565b5f918252602082815260408084206001600160a01b0393909316845291905290205460ff1690565b60036020525f908152604090208054819061105c90611daf565b80601f016020809104026020016040519081016040528092919081815260200182805461108890611daf565b80156110d35780601f106110aa576101008083540402835291602001916110d3565b820191905f5260205f20905b8154815290600101906020018083116110b657829003601f168201915b505050506001830154600284015460038501546004860154600590960154949592949193509160ff169086565b5f7f241ecf16d79d0f8dbfb92cbc07fe17840425976cf0667f022fe9877caa831b0861112b8161164a565b60028054905f61113a83611e29565b909155506040805160e06020601f8a01819004028201810190925260c0810188815292945091829189908990819085018382808284375f9201829052509385525050506020808301889052604080840188905260608401839052600160808501524260a0909401939093528582526003905220815181906111bb9082611ef1565b5060208201516001820155604080830151600283015560608301516003830155608083015160048301805460ff191691151591909117905560a0909201516005909101555182907f642f95fc4f73850f9892227ccee20fac4904ba0645894b644766d21a1a8d82059061123390899089908990611fac565b60405180910390a250949350505050565b5f8281526020819052604090206001015461125e8161164a565b6107528383611738565b7f241ecf16d79d0f8dbfb92cbc07fe17840425976cf0667f022fe9877caa831b086112928161164a565b60025485106112b35760405162461bcd60e51b815260040161056090611d80565b5f85815260036020908152604091829020600181018790556002810186905560048101805460ff19168615159081179091558351888152928301529187917f5120680c86668cac898dab69a03b0ee7262d0d93799edb4e0c9ca52e001e4368910160405180910390a2505050505050565b6005602052815f5260405f20818154811061133d575f80fd5b5f91825260209091206003909102018054600182015460029092015490935090915083565b5f516020611ff85f395f51905f526113798161164a565b6113816117a1565b60025482106113a25760405162461bcd60e51b815260040161056090611d80565b6001600160a01b0383165f90815260046020908152604080832085845290915290205460ff16156114095760405162461bcd60e51b8152602060048201526011602482015270105b1c9958591e4818dbdb5c1b195d1959607a1b6044820152606401610560565b5f828152600360205260409020600481015460ff1661143a5760405162461bcd60e51b815260040161056090611de7565b6001600160a01b0384165f9081526004602090815260408083208684529091528120805460ff191660011790556003820180549161147783611e29565b909155505060098054905f61148b83611e29565b90915550506001810154801580159061152a57506040516370a0823160e01b815230600482015281907f00000000000000000000000000000000000000000000000000000000000000006001600160a01b0316906370a0823190602401602060405180830381865afa158015611503573d5f5f3e3d5ffd5b505050506040513d601f19601f820116820180604052508101906115279190611e41565b10155b156115fa576001600160a01b0385165f8181526005602090815260408083208151606081018352898152428185019081528184018881528354600181810186559488528688209351600390910290930192835590519282019290925590516002909101559282526006905290812080548392906115a8908490611e58565b925050819055508060085f8282546115c09190611e58565b909155506115fa90506001600160a01b037f0000000000000000000000000000000000000000000000000000000000000000168683611657565b604080518281524260208201526001600160a01b0387169186917f59fddc30674b65579cb7353487f994e177536b52f292ac535d8c1079001956b7910160405180910390a3505061059d60018055565b61165481336117f3565b50565b604080516001600160a01b038416602482015260448082018490528251808303909101815260649091019091526020810180516001600160e01b031663a9059cbb60e01b17905261059d908490611830565b5f6116b4838361101a565b611731575f838152602081815260408083206001600160a01b03861684529091529020805460ff191660011790556116e93390565b6001600160a01b0316826001600160a01b0316847f2f8788117e7eff1d82e926ec794901d17c78024a50270940304540a733656f0d60405160405180910390a450600161050a565b505f61050a565b5f611743838361101a565b15611731575f838152602081815260408083206001600160a01b0386168085529252808320805460ff1916905551339286917ff6391f5c32d9c69d2a47ea670b442974b53935d1edc7fd64eb21e047a839171b9190a450600161050a565b6002600154036117c457604051633ee5aeb560e01b815260040160405180910390fd5b6002600155565b5f5f5f5f6117d9868661189c565b9250925092506117e982826118e5565b5090949350505050565b6117fd828261101a565b61182c5760405163e2517d3f60e01b81526001600160a01b038216600482015260248101839052604401610560565b5050565b5f5f60205f8451602086015f885af18061184f576040513d5f823e3d81fd5b50505f513d91508115611866578060011415611873565b6001600160a01b0384163b155b1561075257604051635274afe760e01b81526001600160a01b0385166004820152602401610560565b5f5f5f83516041036118d3576020840151604085015160608601515f1a6118c58882858561199d565b9550955095505050506118de565b505081515f91506002905b9250925092565b5f8260038111156118f8576118f8611fe3565b03611901575050565b600182600381111561191557611915611fe3565b036119335760405163f645eedf60e01b815260040160405180910390fd5b600282600381111561194757611947611fe3565b036119685760405163fce698f760e01b815260048101829052602401610560565b600382600381111561197c5761197c611fe3565b0361182c576040516335e2f38360e21b815260048101829052602401610560565b5f80807f7fffffffffffffffffffffffffffffff5d576e7357a4501ddfe92f46681b20a08411156119d657505f91506003905082611a5b565b604080515f808252602082018084528a905260ff891692820192909252606081018790526080810186905260019060a0016020604051602081039080840390855afa158015611a27573d5f5f3e3d5ffd5b5050604051601f1901519150506001600160a01b038116611a5257505f925060019150829050611a5b565b92505f91508190505b9450945094915050565b5f60208284031215611a75575f5ffd5b81356001600160e01b031981168114611a8c575f5ffd5b9392505050565b80356001600160a01b0381168114611aa9575f5ffd5b919050565b5f5f60408385031215611abf575f5ffd5b611ac883611a93565b946020939093013593505050565b5f60208284031215611ae6575f5ffd5b5035919050565b60c081525f87518060c08401528060208a0160e085015e5f60e0828501015260e0601f19601f83011684010191505086602083015285604083015284606083015283151560808301528260a0830152979650505050505050565b5f60208284031215611b57575f5ffd5b611a8c82611a93565b602080825282518282018190525f918401906040840190835b81811015611bb357835180518452602081015160208501526040810151604085015250606083019250602084019350600181019050611b79565b509095945050505050565b5f5f60408385031215611bcf575f5ffd5b82359150611bdf60208401611a93565b90509250929050565b5f5f83601f840112611bf8575f5ffd5b50813567ffffffffffffffff811115611c0f575f5ffd5b602083019150836020828501011115611c26575f5ffd5b9250929050565b5f5f5f5f60608587031215611c40575f5ffd5b84359350602085013567ffffffffffffffff811115611c5d575f5ffd5b611c6987828801611be8565b9598909750949560400135949350505050565b5f5f5f60408486031215611c8e575f5ffd5b833567ffffffffffffffff811115611ca4575f5ffd5b8401601f81018613611cb4575f5ffd5b803567ffffffffffffffff811115611cca575f5ffd5b8660208260051b8401011115611cde575f5ffd5b6020918201979096509401359392505050565b5f5f5f5f60608587031215611d04575f5ffd5b843567ffffffffffffffff811115611d1a575f5ffd5b611d2687828801611be8565b90989097506020870135966040013595509350505050565b5f5f5f5f60808587031215611d51575f5ffd5b84359350602085013592506040850135915060608501358015158114611d75575f5ffd5b939692955090935050565b60208082526015908201527410dbdd5c9cd948191bd95cc81b9bdd08195e1a5cdd605a1b604082015260600190565b600181811c90821680611dc357607f821691505b602082108103611de157634e487b7160e01b5f52602260045260245ffd5b50919050565b602080825260149082015273436f75727365206973206e6f742061637469766560601b604082015260600190565b634e487b7160e01b5f52601160045260245ffd5b5f60018201611e3a57611e3a611e15565b5060010190565b5f60208284031215611e51575f5ffd5b5051919050565b8082018082111561050a5761050a611e15565b634e487b7160e01b5f52603260045260245ffd5b8181038181111561050a5761050a611e15565b634e487b7160e01b5f52604160045260245ffd5b601f82111561059d57805f5260205f20601f840160051c81016020851015611ecb5750805b601f840160051c820191505b81811015611eea575f8155600101611ed7565b5050505050565b815167ffffffffffffffff811115611f0b57611f0b611e92565b611f1f81611f198454611daf565b84611ea6565b6020601f821160018114611f51575f8315611f3a5750848201515b5f19600385901b1c1916600184901b178455611eea565b5f84815260208120601f198516915b82811015611f805787850151825560209485019460019092019101611f60565b5084821015611f9d57868401515f19600387901b60f8161c191681555b50505050600190811b01905550565b60408152826040820152828460608301375f606084830101525f6060601f19601f8601168301019050826020830152949350505050565b634e487b7160e01b5f52602160045260245ffdfeae4a0595970935aa5495afbbb72e5f1f6ff1062766b4a3028c0c9b7d5cf7e345a264697066735822122078cd87d3a5ea5827ad8f1c8e8d1fc50987029b7a0548604b77eb3887feb9cffd64736f6c634300081c0033",
  "linkReferences": {},
  "deployedLinkReferences": {}
}