{
  "_format": "hh-sol-artifact-1",
  "contractName": "VestingManager",
  "sourceName": "contracts/allocation/VestingManager.sol",
  "abi": [
    {
      "inputs": [
        {
          "internalType": "address",
          "name": "_token",
          "type": "address"
        },
        {
          "internalType": "address",
          "name": "_governance",
          "type": "address"
        }
      ],
      "stateMutability": "nonpayable",
      "type": "constructor"
    },
    {
      "inputs": [],
      "name": "AccessControlBadConfirmation",
      "type": "error"
    },
    {
      "inputs": [
        {
          "internalType": "address",
          "name": "account",
          "type": "address"
        },
        {
          "internalType": "bytes32",
          "name": "neededRole",
          "type": "bytes32"
        }
      ],
      "name": "AccessControlUnauthorizedAccount",
      "type": "error"
    },
    {
      "inputs": [],
      "name": "ReentrancyGuardReentrantCall",
      "type": "error"
    },
    {
      "inputs": [
        {
          "internalType": "address",
          "name": "token",
          "type": "address"
        }
      ],
      "name": "SafeERC20FailedOperation",
      "type": "error"
    },
    {
      "anonymous": false,
      "inputs": [
        {
          "indexed": false,
          "internalType": "string",
          "name": "category",
          "type": "string"
        },
        {
          "indexed": false,
          "internalType": "uint256",
          "name": "limit",
          "type": "uint256"
        }
      ],
      "name": "CategoryLimitSet",
      "type": "event"
    },
    {
      "anonymous": false,
      "inputs": [
        {
          "indexed": true,
          "internalType": "bytes32",
          "name": "role",
          "type": "bytes32"
        },
        {
          "indexed": true,
          "internalType": "bytes32",
          "name": "previousAdminRole",
          "type": "bytes32"
        },
        {
          "indexed": true,
          "internalType": "bytes32",
          "name": "newAdminRole",
          "type": "bytes32"
        }
      ],
      "name": "RoleAdminChanged",
      "type": "event"
    },
    {
      "anonymous": false,
      "inputs": [
        {
          "indexed": true,
          "internalType": "bytes32",
          "name": "role",
          "type": "bytes32"
        },
        {
          "indexed": true,
          "internalType": "address",
          "name": "account",
          "type": "address"
        },
        {
          "indexed": true,
          "internalType": "address",
          "name": "sender",
          "type": "address"
        }
      ],
      "name": "RoleGranted",
      "type": "event"
    },
    {
      "anonymous": false,
      "inputs": [
        {
          "indexed": true,
          "internalType": "bytes32",
          "name": "role",
          "type": "bytes32"
        },
        {
          "indexed": true,
          "internalType": "address",
          "name": "account",
          "type": "address"
        },
        {
          "indexed": true,
          "internalType": "address",
          "name": "sender",
          "type": "address"
        }
      ],
      "name": "RoleRevoked",
      "type": "event"
    },
    {
      "anonymous": false,
      "inputs": [
        {
          "indexed": true,
          "internalType": "bytes32",
          "name": "scheduleId",
          "type": "bytes32"
        },
        {
          "indexed": true,
          "internalType": "address",
          "name": "beneficiary",
          "type": "address"
        },
        {
          "indexed": false,
          "internalType": "uint256",
          "name": "amount",
          "type": "uint256"
        }
      ],
      "name": "TokensReleased",
      "type": "event"
    },
    {
      "anonymous": false,
      "inputs": [
        {
          "indexed": true,
          "internalType": "bytes32",
          "name": "scheduleId",
          "type": "bytes32"
        },
        {
          "indexed": false,
          "internalType": "uint256",
          "name": "unvestedAmount",
          "type": "uint256"
        }
      ],
      "name": "VestingRevoked",
      "type": "event"
    },
    {
      "anonymous": false,
      "inputs": [
        {
          "indexed": true,
          "internalType": "bytes32",
          "name": "scheduleId",
          "type": "bytes32"
        },
        {
          "indexed": true,
          "internalType": "address",
          "name": "beneficiary",
          "type": "address"
        },
        {
          "indexed": false,
          "internalType": "uint256",
          "name": "amount",
          "type": "uint256"
        },
        {
          "indexed": false,
          "internalType": "uint256",
          "name": "startTime",
          "type": "uint256"
        },
        {
          "indexed": false,
          "internalType": "uint256",
          "name": "cliffDuration",
          "type": "uint256"
        },
        {
          "indexed": false,
          "internalType": "uint256",
          "name": "vestingDuration",
          "type": "uint256"
        },
        {
          "indexed": false,
          "internalType": "string",
          "name": "category",
          "type": "string"
        }
      ],
      "name": "VestingScheduleCreated",
      "type": "event"
    },
    {
      "inputs": [],
      "name": "DEFAULT_ADMIN_ROLE",
      "outputs": [
        {
          "internalType": "bytes32",
          "name": "",
          "type": "bytes32"
        }
      ],
      "stateMutability": "view",
      "type": "function"
    },
    {
      "inputs": [],
      "name": "VESTING_ADMIN_ROLE",
      "outputs": [
        {
          "internalType": "bytes32",
          "name": "",
          "type": "bytes32"
        }
      ],
      "stateMutability": "view",
      "type": "function"
    },
    {
      "inputs": [
        {
          "internalType": "uint256",
          "name": "",
          "type": "uint256"
        }
      ],
      "name": "allScheduleIds",
      "outputs": [
        {
          "internalType": "bytes32",
          "name": "",
          "type": "bytes32"
        }
      ],
      "stateMutability": "view",
      "type": "function"
    },
    {
      "inputs": [
        {
          "internalType": "address[]",
          "name": "beneficiaries",
          "type": "address[]"
        },
        {
          "internalType": "uint256[]",
          "name": "amounts",
          "type": "uint256[]"
        },
        {
          "internalType": "uint256",
          "name": "startTime",
          "type": "uint256"
        },
        {
          "internalType": "uint256",
          "name": "cliffDuration",
          "type": "uint256"
        },
        {
          "internalType": "uint256",
          "name": "vestingDuration",
          "type": "uint256"
        },
        {
          "internalType": "bool",
          "name": "revocable",
          "type": "bool"
        },
        {
          "internalType": "string",
          "name": "category",
          "type": "string"
        }
      ],
      "name": "batchCreateVestingSchedules",
      "outputs": [],
      "stateMutability": "nonpayable",
      "type": "function"
    },
    {
      "inputs": [
        {
          "internalType": "address",
          "name": "",
          "type": "address"
        },
        {
          "internalType": "uint256",
          "name": "",
          "type": "uint256"
        }
      ],
      "name": "beneficiarySchedules",
      "outputs": [
        {
          "internalType": "bytes32",
          "name": "",
          "type": "bytes32"
        }
      ],
      "stateMutability": "view",
      "type": "function"
    },
    {
      "inputs": [
        {
          "internalType": "string",
          "name": "",
          "type": "string"
        }
      ],
      "name": "categoryAllocated",
      "outputs": [
        {
          "internalType": "uint256",
          "name": "",
          "type": "uint256"
        }
      ],
      "stateMutability": "view",
      "type": "function"
    },
    {
      "inputs": [
        {
          "internalType": "string",
          "name": "",
          "type": "string"
        }
      ],
      "name": "categoryLimits",
      "outputs": [
        {
          "internalType": "uint256",
          "name": "",
          "type": "uint256"
        }
      ],
      "stateMutability": "view",
      "type": "function"
    },
    {
      "inputs": [
        {
          "internalType": "address",
          "name": "beneficiary",
          "type": "address"
        },
        {
          "internalType": "uint256",
          "name": "amount",
          "type": "uint256"
        },
        {
          "internalType": "uint256",
          "name": "startTime",
          "type": "uint256"
        },
        {
          "internalType": "uint256",
          "name": "cliffDuration",
          "type": "uint256"
        },
        {
          "internalType": "uint256",
          "name": "vestingDuration",
          "type": "uint256"
        },
        {
          "internalType": "bool",
          "name": "revocable",
          "type": "bool"
        },
        {
          "internalType": "string",
          "name": "category",
          "type": "string"
        }
      ],
      "name": "createVestingSchedule",
      "outputs": [
        {
          "internalType": "bytes32",
          "name": "scheduleId",
          "type": "bytes32"
        }
      ],
      "stateMutability": "nonpayable",
      "type": "function"
    },
    {
      "inputs": [
        {
          "internalType": "address",
          "name": "beneficiary",
          "type": "address"
        }
      ],
      "name": "getBeneficiarySchedules",
      "outputs": [
        {
          "internalType": "bytes32[]",
          "name": "",
          "type": "bytes32[]"
        }
      ],
      "stateMutability": "view",
      "type": "function"
    },
    {
      "inputs": [
        {
          "internalType": "string",
          "name": "category",
          "type": "string"
        }
      ],
      "name": "getCategoryInfo",
      "outputs": [
        {
          "internalType": "uint256",
          "name": "allocated",
          "type": "uint256"
        },
        {
          "internalType": "uint256",
          "name": "limit",
          "type": "uint256"
        },
        {
          "internalType": "uint256",
          "name": "available",
          "type": "uint256"
        }
      ],
      "stateMutability": "view",
      "type": "function"
    },
    {
      "inputs": [
        {
          "internalType": "bytes32",
          "name": "scheduleId",
          "type": "bytes32"
        }
      ],
      "name": "getReleasableAmount",
      "outputs": [
        {
          "internalType": "uint256",
          "name": "",
          "type": "uint256"
        }
      ],
      "stateMutability": "view",
      "type": "function"
    },
    {
      "inputs": [
        {
          "internalType": "bytes32",
          "name": "role",
          "type": "bytes32"
        }
      ],
      "name": "getRoleAdmin",
      "outputs": [
        {
          "internalType": "bytes32",
          "name": "",
          "type": "bytes32"
        }
      ],
      "stateMutability": "view",
      "type": "function"
    },
    {
      "inputs": [
        {
          "internalType": "bytes32",
          "name": "scheduleId",
          "type": "bytes32"
        }
      ],
      "name": "getSchedule",
      "outputs": [
        {
          "internalType": "address",
          "name": "beneficiary",
          "type": "address"
        },
        {
          "internalType": "uint256",
          "name": "totalAmount",
          "type": "uint256"
        },
        {
          "internalType": "uint256",
          "name": "released",
          "type": "uint256"
        },
        {
          "internalType": "uint256",
          "name": "releasable",
          "type": "uint256"
        },
        {
          "internalType": "uint256",
          "name": "startTime",
          "type": "uint256"
        },
        {
          "internalType": "uint256",
          "name": "cliffEnd",
          "type": "uint256"
        },
        {
          "internalType": "uint256",
          "name": "vestingEnd",
          "type": "uint256"
        },
        {
          "internalType": "bool",
          "name": "revocable",
          "type": "bool"
        },
        {
          "internalType": "bool",
          "name": "revoked",
          "type": "bool"
        },
        {
          "internalType": "string",
          "name": "category",
          "type": "string"
        }
      ],
      "stateMutability": "view",
      "type": "function"
    },
    {
      "inputs": [],
      "name": "getScheduleCount",
      "outputs": [
        {
          "internalType": "uint256",
          "name": "",
          "type": "uint256"
        }
      ],
      "stateMutability": "view",
      "type": "function"
    },
    {
      "inputs": [
        {
          "internalType": "address",
          "name": "beneficiary",
          "type": "address"
        }
      ],
      "name": "getTotalReleasable",
      "outputs": [
        {
          "internalType": "uint256",
          "name": "",
          "type": "uint256"
        }
      ],
      "stateMutability": "view",
      "type": "function"
    },
    {
      "inputs": [
        {
          "internalType": "bytes32",
          "name": "scheduleId",
          "type": "bytes32"
        }
      ],
      "name": "getVestedAmount",
      "outputs": [
        {
          "internalType": "uint256",
          "name": "",
          "type": "uint256"
        }
      ],
      "stateMutability": "view",
      "type": "function"
    },
    {
      "inputs": [
        {
          "internalType": "bytes32",
          "name": "role",
          "type": "bytes32"
        },
        {
          "internalType": "address",
          "name": "account",
          "type": "address"
        }
      ],
      "name": "grantRole",
      "outputs": [],
      "stateMutability": "nonpayable",
      "type": "function"
    },
    {
      "inputs": [
        {
          "internalType": "bytes32",
          "name": "role",
          "type": "bytes32"
        },
        {
          "internalType": "address",
          "name": "account",
          "type": "address"
        }
      ],
      "name": "hasRole",
      "outputs": [
        {
          "internalType": "bool",
          "name": "",
          "type": "bool"
        }
      ],
      "stateMutability": "view",
      "type": "function"
    },
    {
      "inputs": [
        {
          "internalType": "bytes32",
          "name": "scheduleId",
          "type": "bytes32"
        }
      ],
      "name": "release",
      "outputs": [],
      "stateMutability": "nonpayable",
      "type": "function"
    },
    {
      "inputs": [],
      "name": "releaseAll",
      "outputs": [],
      "stateMutability": "nonpayable",
      "type": "function"
    },
    {
      "inputs": [
        {
          "internalType": "bytes32",
          "name": "role",
          "type": "bytes32"
        },
        {
          "internalType": "address",
          "name": "callerConfirmation",
          "type": "address"
        }
      ],
      "name": "renounceRole",
      "outputs": [],
      "stateMutability": "nonpayable",
      "type": "function"
    },
    {
      "inputs": [
        {
          "internalType": "bytes32",
          "name": "scheduleId",
          "type": "bytes32"
        }
      ],
      "name": "revoke",
      "outputs": [],
      "stateMutability": "nonpayable",
      "type": "function"
    },
    {
      "inputs": [
        {
          "internalType": "bytes32",
          "name": "role",
          "type": "bytes32"
        },
        {
          "internalType": "address",
          "name": "account",
          "type": "address"
        }
      ],
      "name": "revokeRole",
      "outputs": [],
      "stateMutability": "nonpayable",
      "type": "function"
    },
    {
      "inputs": [
        {
          "internalType": "string",
          "name": "category",
          "type": "string"
        },
        {
          "internalType": "uint256",
          "name": "limit",
          "type": "uint256"
        }
      ],
      "name": "setCategoryLimit",
      "outputs": [],
      "stateMutability": "nonpayable",
      "type": "function"
    },
    {
      "inputs": [
        {
          "internalType": "bytes4",
          "name": "interfaceId",
          "type": "bytes4"
        }
      ],
      "name": "supportsInterface",
      "outputs": [
        {
          "internalType": "bool",
          "name": "",
          "type": "bool"
        }
      ],
      "stateMutability": "view",
      "type": "function"
    },
    {
      "inputs": [],
      "name": "token",
      "outputs": [
        {
          "internalType": "contract IERC20",
          "name": "",
          "type": "address"
        }
      ],
      "stateMutability": "view",
      "type": "function"
    },
    {
      "inputs": [],
      "name": "totalReleased",
      "outputs": [
        {
          "internalType": "uint256",
          "name": "",
          "type": "uint256"
        }
      ],
      "stateMutability": "view",
      "type": "function"
    },
    {
      "inputs": [],
      "name": "totalVestingAmount",
      "outputs": [
        {
          "internalType": "uint256",
          "name": "",
          "type": "uint256"
        }
      ],
      "stateMutability": "view",
      "type": "function"
    },
    {
      "inputs": [
        {
          "internalType": "bytes32",
          "name": "",
          "type": "bytes32"
        }
      ],
      "name": "vestingSchedules",
      "outputs": [
        {
          "internalType": "address",
          "name": "beneficiary",
          "type": "address"
        },
        {
          "internalType": "uint256",
          "name": "totalAmount",
          "type": "uint256"
        },
        {
          "internalType": "uint256",
          "name": "released",
          "type": "uint256"
        },
        {
          "internalType": "uint256",
          "name": "startTime",
          "type": "uint256"
        },
        {
          "internalType": "uint256",
          "name": "cliffDuration",
          "type": "uint256"
        },
        {
          "internalType": "uint256",
          "name": "vestingDuration",
          "type": "uint256"
        },
        {
          "internalType": "bool",
          "name": "revocable",
          "type": "bool"
        },
        {
          "internalType": "bool",
          "name": "revoked",
          "type": "bool"
        },
        {
          "internalType": "string",
          "name": "category",
          "type": "string"
        }
      ],
      "stateMutability": "view",
      "type": "function"
    },
    {
      "inputs": [
        {
          "internalType": "address",
          "name": "to",
          "type": "address"
        },
        {
          "internalType": "uint256",
          "name": "amount",
          "type": "uint256"
        }
      ],
      "name": "withdrawUnvested",
      "outputs": [],
      "stateMutability": "nonpayable",
      "type": "function"
    }
  ],
  "bytecode": "0x60a060405234801561000f575f5ffd5b506040516125b43803806125b483398101604081905261002e916101f1565b600180556001600160a01b03821661008d5760405162461bcd60e51b815260206004820152601560248201527f496e76616c696420746f6b656e2061646472657373000000000000000000000060448201526064015b60405180910390fd5b6001600160a01b0381166100e35760405162461bcd60e51b815260206004820152601a60248201527f496e76616c696420676f7665726e616e636520616464726573730000000000006044820152606401610084565b6001600160a01b0382166080526100fa5f8261012d565b506101257fa8f45af456ec169d21f52f0673e869f84c82a5ecdb557cd556f1159a748bfb068261012d565b505050610222565b5f828152602081815260408083206001600160a01b038516845290915281205460ff166101cd575f838152602081815260408083206001600160a01b03861684529091529020805460ff191660011790556101853390565b6001600160a01b0316826001600160a01b0316847f2f8788117e7eff1d82e926ec794901d17c78024a50270940304540a733656f0d60405160405180910390a45060016101d0565b505f5b92915050565b80516001600160a01b03811681146101ec575f5ffd5b919050565b5f5f60408385031215610202575f5ffd5b61020b836101d6565b9150610219602084016101d6565b90509250929050565b60805161235761025d5f395f8181610483015281816109f701528181610c6201528181610f12015281816111f701526112e301526123575ff3fe608060405234801561000f575f5ffd5b50600436106101d1575f3560e01c80637c8a3a8d116100fe578063d09730fe1161009e578063e72997f91161006e578063e72997f91461042d578063e9bdc09e14610440578063fb1f32a314610453578063fc0c546a1461047e575f5ffd5b8063d09730fe146103eb578063d547741f146103fe578063d7a05ce814610411578063e33b7de314610424575f5ffd5b806391d14854116100d957806391d1485414610390578063a217fddf146103a3578063b75c7dc6146103aa578063b797476a146103bd575f5ffd5b80637c8a3a8d14610349578063828ca57e1461035d5780638fdd511e14610370575f5ffd5b80633adc277a116101745780635a3c3c2c116101445780635a3c3c2c146102fe5780635be7fde814610306578063604178871461030e57806367d42a8b14610336575f5ffd5b80633adc277a1461028457806346ca4241146102ad5780634b8dc424146102c05780634f9975a5146102eb575f5ffd5b80632db94d19116101af5780632db94d19146102405780632f2ff15d146102495780632f6444cd1461025e57806336568abe14610271575f5ffd5b806301ffc9a7146101d5578063248a9ca3146101fd5780632d8276f61461022d575b5f5ffd5b6101e86101e3366004611afc565b6104bd565b60405190151581526020015b60405180910390f35b61021f61020b366004611b23565b5f9081526020819052604090206001015490565b6040519081526020016101f4565b61021f61023b366004611b23565b6104f3565b61021f60055481565b61025c610257366004611b55565b610510565b005b61025c61026c366004611c14565b61053a565b61025c61027f366004611b55565b61060c565b610297610292366004611b23565b610644565b6040516101f49a99989796959493929190611d0f565b61021f6102bb366004611d77565b610773565b61021f6102ce366004611db3565b805160208183018101805160088252928201919093012091525481565b61025c6102f9366004611e66565b61079e565b60045461021f565b61025c61087e565b61032161031c366004611b23565b610a2b565b6040516101f499989796959493929190611eae565b61025c610344366004611b23565b610b10565b61021f5f5160206123025f395f51905f5281565b61021f61036b366004611f0e565b610cdc565b61038361037e366004611f93565b610d12565b6040516101f49190611fac565b6101e861039e366004611b55565b610d7b565b61021f5f81565b61025c6103b8366004611b23565b610da3565b6103d06103cb366004611fee565b61103c565b604080519384526020840192909252908201526060016101f4565b61021f6103f9366004611b23565b6110a5565b61025c61040c366004611b55565b6110c4565b61021f61041f366004611f93565b6110e8565b61021f60065481565b61021f61043b366004611b23565b611176565b61025c61044e366004611d77565b61118c565b61021f610461366004611db3565b805160208183018101805160078252928201919093012091525481565b6104a57f000000000000000000000000000000000000000000000000000000000000000081565b6040516001600160a01b0390911681526020016101f4565b5f6001600160e01b03198216637965db0b60e01b14806104ed57506301ffc9a760e01b6001600160e01b03198316145b92915050565b5f81815260026020526040812061050981611311565b9392505050565b5f8281526020819052604090206001015461052a816113a3565b61053483836113ad565b50505050565b5f5160206123025f395f51905f52610551816113a3565b89881461059d5760405162461bcd60e51b8152602060048201526015602482015274082e4e4c2f240d8cadccee8d040dad2e6dac2e8c6d605b1b60448201526064015b60405180910390fd5b5f5b8a8110156105fe576105f58c8c838181106105bc576105bc61202d565b90506020020160208101906105d19190611f93565b8b8b848181106105e3576105e361202d565b905060200201358a8a8a8a8a8a61143c565b5060010161059f565b505050505050505050505050565b6001600160a01b03811633146106355760405163334bd91960e11b815260040160405180910390fd5b61063f8282611959565b505050565b5f81815260026020819052604082208054600182015492820154849384938493849384938493849384936060936001600160a01b039092169190610687846119c2565b6003850154600486015461069b9082612055565b866005015487600301546106af9190612055565b600688015460078901805460ff80841693610100900416919081906106d390612068565b80601f01602080910402602001604051908101604052809291908181526020018280546106ff90612068565b801561074a5780601f106107215761010080835404028352916020019161074a565b820191905f5260205f20905b81548152906001019060200180831161072d57829003601f168201915b505050505090509a509a509a509a509a509a509a509a509a509a50509193959799509193959799565b6003602052815f5260405f20818154811061078c575f80fd5b905f5260205f20015f91509150505481565b5f6107a8816113a3565b600784846040516107ba9291906120a0565b9081526020016040518091039020548210156108185760405162461bcd60e51b815260206004820152601c60248201527f4c696d69742062656c6f7720616c6c6f636174656420616d6f756e74000000006044820152606401610594565b816008858560405161082b9291906120a0565b9081526020016040518091039020819055507fc565f11666236c99f2557e4145bd70b5bab1062a004511e40f9fcdcf5e8f83b5848484604051610870939291906120d7565b60405180910390a150505050565b6108866119db565b335f90815260036020526040812090805b825481101561098c575f60025f8584815481106108b6576108b661202d565b905f5260205f20015481526020019081526020015f2090508060060160019054906101000a900460ff16156108eb5750610984565b5f6108f5826119c2565b905080156109815780826002015f8282546109109190612055565b9091555061092090508185612055565b9350336001600160a01b031685848154811061093e5761093e61202d565b905f5260205f2001547f62eb4bd96d9a7a66875a9f46f9f9d8bf6cfed3fe0578671b752301427d2a4f668360405161097891815260200190565b60405180910390a35b50505b600101610897565b505f81116109d35760405162461bcd60e51b81526020600482015260146024820152734e6f20746f6b656e7320746f2072656c6561736560601b6044820152606401610594565b8060065f8282546109e49190612055565b90915550610a1e90506001600160a01b037f0000000000000000000000000000000000000000000000000000000000000000163383611a05565b5050610a2960018055565b565b600260208190525f9182526040909120805460018201549282015460038301546004840154600585015460068601546007870180546001600160a01b039097169897959694959394929360ff808416946101009094041692909190610a8f90612068565b80601f0160208091040260200160405190810160405280929190818152602001828054610abb90612068565b8015610b065780601f10610add57610100808354040283529160200191610b06565b820191905f5260205f20905b815481529060010190602001808311610ae957829003601f168201915b5050505050905089565b610b186119db565b5f81815260026020526040902080546001600160a01b0316610b765760405162461bcd60e51b815260206004820152601760248201527614d8da19591d5b1948191bd95cc81b9bdd08195e1a5cdd604a1b6044820152606401610594565b6006810154610100900460ff1615610bd05760405162461bcd60e51b815260206004820152601960248201527f5363686564756c6520686173206265656e207265766f6b6564000000000000006044820152606401610594565b5f610bda826119c2565b90505f8111610c225760405162461bcd60e51b81526020600482015260146024820152734e6f20746f6b656e7320746f2072656c6561736560601b6044820152606401610594565b80826002015f828254610c359190612055565b925050819055508060065f828254610c4d9190612055565b90915550508154610c8b906001600160a01b037f00000000000000000000000000000000000000000000000000000000000000008116911683611a05565b81546040518281526001600160a01b039091169084907f62eb4bd96d9a7a66875a9f46f9f9d8bf6cfed3fe0578671b752301427d2a4f669060200160405180910390a35050610cd960018055565b50565b5f5f5160206123025f395f51905f52610cf4816113a3565b610d048a8a8a8a8a8a8a8a61143c565b9a9950505050505050505050565b6001600160a01b0381165f90815260036020908152604091829020805483518184028101840190945280845260609392830182828015610d6f57602002820191905f5260205f20905b815481526020019060010190808311610d5b575b50505050509050919050565b5f918252602082815260408084206001600160a01b0393909316845291905290205460ff1690565b5f5160206123025f395f51905f52610dba816113a3565b610dc26119db565b5f82815260026020526040902080546001600160a01b0316610e205760405162461bcd60e51b815260206004820152601760248201527614d8da19591d5b1948191bd95cc81b9bdd08195e1a5cdd604a1b6044820152606401610594565b600681015460ff16610e745760405162461bcd60e51b815260206004820152601960248201527f5363686564756c65206973206e6f74207265766f6361626c65000000000000006044820152606401610594565b6006810154610100900460ff1615610ec05760405162461bcd60e51b815260206004820152600f60248201526e105b1c9958591e481c995d9bdad959608a1b6044820152606401610594565b5f610eca826119c2565b90508015610f7f5780826002015f828254610ee59190612055565b925050819055508060065f828254610efd9190612055565b90915550508154610f3b906001600160a01b037f00000000000000000000000000000000000000000000000000000000000000008116911683611a05565b81546040518281526001600160a01b039091169085907f62eb4bd96d9a7a66875a9f46f9f9d8bf6cfed3fe0578671b752301427d2a4f669060200160405180910390a35b5f82600201548360010154610f9491906120fa565b60068401805461ff0019166101001790556005805491925082915f90610fbb9084906120fa565b9250508190555080600784600701604051610fd6919061210d565b90815260200160405180910390205f828254610ff291906120fa565b909155505060405181815285907fd76e6ddeb66c11426afbadb0c7e5cb4ef26e8dfe8043b119d95879df37d9b8e89060200160405180910390a250505061103860018055565b5050565b5f5f5f600785856040516110519291906120a0565b9081526020016040518091039020549250600885856040516110749291906120a0565b9081526020016040518091039020549150828211611092575f61109c565b61109c83836120fa565b90509250925092565b600481815481106110b4575f80fd5b5f91825260209091200154905081565b5f828152602081905260409020600101546110de816113a3565b6105348383611959565b6001600160a01b0381165f90815260036020526040812081805b825481101561116e575f60025f8584815481106111215761112161202d565b905f5260205f20015481526020019081526020015f2090508060060160019054906101000a900460ff1661116557611158816119c2565b6111629084612055565b92505b50600101611102565b509392505050565b5f818152600260205260408120610509816119c2565b5f611196816113a3565b6001600160a01b0383166111e05760405162461bcd60e51b8152602060048201526011602482015270125b9d985b1a59081c9958da5c1a595b9d607a1b6044820152606401610594565b6040516370a0823160e01b81523060048201525f907f00000000000000000000000000000000000000000000000000000000000000006001600160a01b0316906370a0823190602401602060405180830381865afa158015611244573d5f5f3e3d5ffd5b505050506040513d601f19601f82011682018060405250810190611268919061217e565b90505f60065460055461127b91906120fa565b90508361128882846120fa565b10156112d65760405162461bcd60e51b815260206004820152601e60248201527f43616e6e6f742077697468647261772076657374696e6720746f6b656e7300006044820152606401610594565b61130a6001600160a01b037f0000000000000000000000000000000000000000000000000000000000000000168686611a05565b5050505050565b60068101545f90610100900460ff161561132d57506002015490565b816004015482600301546113419190612055565b42101561134f57505f919050565b816005015482600301546113639190612055565b421061137157506001015490565b5f82600301544261138291906120fa565b905082600501548184600101546113999190612195565b61050991906121ac565b610cd98133611a57565b5f6113b88383610d7b565b611435575f838152602081815260408083206001600160a01b03861684529091529020805460ff191660011790556113ed3390565b6001600160a01b0316826001600160a01b0316847f2f8788117e7eff1d82e926ec794901d17c78024a50270940304540a733656f0d60405160405180910390a45060016104ed565b505f6104ed565b5f6001600160a01b0389166114895760405162461bcd60e51b8152602060048201526013602482015272496e76616c69642062656e656669636961727960681b6044820152606401610594565b5f88116114cd5760405162461bcd60e51b81526020600482015260126024820152710416d6f756e74206d757374206265203e20360741b6044820152606401610594565b5f85116115135760405162461bcd60e51b815260206004820152601460248201527304475726174696f6e206d757374206265203e20360641b6044820152606401610594565b8486111561155c5760405162461bcd60e51b815260206004820152601660248201527521b634b3331032bc31b2b2b23990323ab930ba34b7b760511b6044820152606401610594565b4287101580611569575086155b6115aa5760405162461bcd60e51b815260206004820152601260248201527114dd185c9d081d1a5b59481a5b881c185cdd60721b6044820152606401610594565b5f600884846040516115bd9291906120a0565b908152602001604051809103902054111561166657600883836040516115e49291906120a0565b90815260200160405180910390205488600785856040516116069291906120a0565b90815260200160405180910390205461161f9190612055565b11156116665760405162461bcd60e51b8152602060048201526016602482015275115e18d959591cc818d85d1959dbdc9e481b1a5b5a5d60521b6044820152606401610594565b6004546040516bffffffffffffffffffffffff1960608c901b166020820152603481018a905260548101899052426074820152609481019190915260b40160408051601f1981840301815291815281516020928301205f81815260029093529120549091506001600160a01b0316156117215760405162461bcd60e51b815260206004820152601760248201527f5363686564756c6520616c7265616479206578697374730000000000000000006044820152606401610594565b5f871561172e5787611730565b425b90506040518061012001604052808b6001600160a01b031681526020018a81526020015f815260200182815260200188815260200187815260200186151581526020015f1515815260200185858080601f0160208091040260200160405190810160405280939291908181526020018383808284375f92018290525093909452505084815260026020818152604092839020855181546001600160a01b0319166001600160a01b039091161781559085015160018201559184015190820155606083015160038201556080830151600482015560a0830151600582015560c083015160068201805460e086015161ffff1990911692151561ff0019169290921761010092151583021790558301519091506007820190611850908261220f565b5050506001600160a01b038a165f908152600360209081526040822080546001818101835591845291832090910184905560048054918201815582527f8a35acfbc15ff81a39ae7d344fd709f28e8600b4aa8c65c6b64bfe7fe36bd19b01839055600580548b92906118c3908490612055565b9250508190555088600785856040516118dd9291906120a0565b90815260200160405180910390205f8282546118f99190612055565b92505081905550896001600160a01b0316827f6d22007e8f0b9310b8d713bf27d3ac672c573a61e66886cce2b2e328c1ad1b698b848b8b8a8a604051611944969594939291906122ca565b60405180910390a35098975050505050505050565b5f6119648383610d7b565b15611435575f838152602081815260408083206001600160a01b0386168085529252808320805460ff1916905551339286917ff6391f5c32d9c69d2a47ea670b442974b53935d1edc7fd64eb21e047a839171b9190a45060016104ed565b5f81600201546119d183611311565b6104ed91906120fa565b6002600154036119fe57604051633ee5aeb560e01b815260040160405180910390fd5b6002600155565b604080516001600160a01b038416602482015260448082018490528251808303909101815260649091019091526020810180516001600160e01b031663a9059cbb60e01b17905261063f908490611a90565b611a618282610d7b565b6110385760405163e2517d3f60e01b81526001600160a01b038216600482015260248101839052604401610594565b5f5f60205f8451602086015f885af180611aaf576040513d5f823e3d81fd5b50505f513d91508115611ac6578060011415611ad3565b6001600160a01b0384163b155b1561053457604051635274afe760e01b81526001600160a01b0385166004820152602401610594565b5f60208284031215611b0c575f5ffd5b81356001600160e01b031981168114610509575f5ffd5b5f60208284031215611b33575f5ffd5b5035919050565b80356001600160a01b0381168114611b50575f5ffd5b919050565b5f5f60408385031215611b66575f5ffd5b82359150611b7660208401611b3a565b90509250929050565b5f5f83601f840112611b8f575f5ffd5b50813567ffffffffffffffff811115611ba6575f5ffd5b6020830191508360208260051b8501011115611bc0575f5ffd5b9250929050565b80358015158114611b50575f5ffd5b5f5f83601f840112611be6575f5ffd5b50813567ffffffffffffffff811115611bfd575f5ffd5b602083019150836020828501011115611bc0575f5ffd5b5f5f5f5f5f5f5f5f5f5f60e08b8d031215611c2d575f5ffd5b8a3567ffffffffffffffff811115611c43575f5ffd5b611c4f8d828e01611b7f565b909b5099505060208b013567ffffffffffffffff811115611c6e575f5ffd5b611c7a8d828e01611b7f565b90995097505060408b0135955060608b0135945060808b01359350611ca160a08c01611bc7565b925060c08b013567ffffffffffffffff811115611cbc575f5ffd5b611cc88d828e01611bd6565b915080935050809150509295989b9194979a5092959850565b5f81518084528060208401602086015e5f602082860101526020601f19601f83011685010191505092915050565b60018060a01b038b1681528960208201528860408201528760608201528660808201528560a08201528460c082015283151560e08201528215156101008201526101406101208201525f611d67610140830184611ce1565b9c9b505050505050505050505050565b5f5f60408385031215611d88575f5ffd5b611d9183611b3a565b946020939093013593505050565b634e487b7160e01b5f52604160045260245ffd5b5f60208284031215611dc3575f5ffd5b813567ffffffffffffffff811115611dd9575f5ffd5b8201601f81018413611de9575f5ffd5b803567ffffffffffffffff811115611e0357611e03611d9f565b604051601f8201601f19908116603f0116810167ffffffffffffffff81118282101715611e3257611e32611d9f565b604052818152828201602001861015611e49575f5ffd5b816020840160208301375f91810160200191909152949350505050565b5f5f5f60408486031215611e78575f5ffd5b833567ffffffffffffffff811115611e8e575f5ffd5b611e9a86828701611bd6565b909790965060209590950135949350505050565b60018060a01b038a1681528860208201528760408201528660608201528560808201528460a082015283151560c082015282151560e08201526101206101008201525f611eff610120830184611ce1565b9b9a5050505050505050505050565b5f5f5f5f5f5f5f5f60e0898b031215611f25575f5ffd5b611f2e89611b3a565b975060208901359650604089013595506060890135945060808901359350611f5860a08a01611bc7565b925060c089013567ffffffffffffffff811115611f73575f5ffd5b611f7f8b828c01611bd6565b999c989b5096995094979396929594505050565b5f60208284031215611fa3575f5ffd5b61050982611b3a565b602080825282518282018190525f918401906040840190835b81811015611fe3578351835260209384019390920191600101611fc5565b509095945050505050565b5f5f60208385031215611fff575f5ffd5b823567ffffffffffffffff811115612015575f5ffd5b61202185828601611bd6565b90969095509350505050565b634e487b7160e01b5f52603260045260245ffd5b634e487b7160e01b5f52601160045260245ffd5b808201808211156104ed576104ed612041565b600181811c9082168061207c57607f821691505b60208210810361209a57634e487b7160e01b5f52602260045260245ffd5b50919050565b818382375f9101908152919050565b81835281816020850137505f828201602090810191909152601f909101601f19169091010190565b604081525f6120ea6040830185876120af565b9050826020830152949350505050565b818103818111156104ed576104ed612041565b5f5f835461211a81612068565b600182168015612131576001811461214657612173565b60ff1983168652811515820286019350612173565b865f5260205f205f5b8381101561216b5781548882015260019091019060200161214f565b505081860193505b509195945050505050565b5f6020828403121561218e575f5ffd5b5051919050565b80820281158282048414176104ed576104ed612041565b5f826121c657634e487b7160e01b5f52601260045260245ffd5b500490565b601f82111561063f57805f5260205f20601f840160051c810160208510156121f05750805b601f840160051c820191505b8181101561130a575f81556001016121fc565b815167ffffffffffffffff81111561222957612229611d9f565b61223d816122378454612068565b846121cb565b6020601f82116001811461226f575f83156122585750848201515b5f19600385901b1c1916600184901b17845561130a565b5f84815260208120601f198516915b8281101561229e578785015182556020948501946001909201910161227e565b50848210156122bb57868401515f19600387901b60f8161c191681555b50505050600190811b01905550565b86815285602082015284604082015283606082015260a060808201525f6122f560a0830184866120af565b9897505050505050505056fea8f45af456ec169d21f52f0673e869f84c82a5ecdb557cd556f1159a748bfb06a2646970667358221220eb4bf4d375d7a9277aacb8b5a4b331c4ebd0fa149d8204792d84a66f280e740264736f6c634300081c0033",
  "linkReferences": {},
  "deployedLinkReferences": {}
}